8=FIX.4.4|9=89|35=A|49=MFIXTradeID|56=MU0319300002|34=1|52=20211215-09:06:48.669768808|98=0|108=8|141=Y|10=161|8=FIX.4.4|9=72|35=0|49=MFIXTradeID|56=MU0319300002|34=2|52=20211215-09:06:54.796210588|10=095|8=FIX.4.4|9=72|35=0|49=MFIXTradeID|56=MU0319300002|34=3|52=20211215-09:07:02.796091403|10=083|8=FIX.4.4|9=72|35=0|49=MFIXTradeID|56=MU0319300002|34=4|52=20211215-09:07:10.796913020|10=081|8=FIX.4.4|9=72|35=0|49=MFIXTradeID|56=MU0319300002|34=5|52=20211215-09:07:18.797679500|10=103|8=FIX.4.4|9=72|35=0|49=MFIXTradeID|56=MU0319300002|34=6|52=20211215-09:07:26.797242589|10=106|8=FIX.4.4|9=72|35=0|49=MFIXTradeID|56=MU0319300002|34=7|52=20211215-09:07:34.797303198|10=100|8=FIX.4.4|9=72|35=0|49=MFIXTradeID|56=MU0319300002|34=8|52=20211215-09:07:42.797867890|10=114|8=FIX.4.4|9=72|35=0|49=MFIXTradeID|56=MU0319300002|34=9|52=20211215-09:07:50.799349705|10=106|8=FIX.4.4|9=73|35=0|49=MFIXTradeID|56=MU0319300002|34=10|52=20211215-09:08:00.019036032|10=114|8=FIX.4.4|9=73|35=0|49=MFIXTradeID|56=MU0319300002|34=11|52=20211215-09:08:07.019786715|10=142|8=FIX.4.4|9=73|35=0|49=MFIXTradeID|56=MU0319300002|34=12|52=20211215-09:08:15.020686840|10=132|8=FIX.4.4|9=73|35=0|49=MFIXTradeID|56=MU0319300002|34=13|52=20211215-09:08:23.021285353|10=127|8=FIX.4.4|9=73|35=0|49=MFIXTradeID|56=MU0319300002|34=14|52=20211215-09:08:31.020953453|10=129|8=FIX.4.4|9=73|35=0|49=MFIXTradeID|56=MU0319300002|34=15|52=20211215-09:08:39.022490294|10=139|8=FIX.4.4|9=73|35=0|49=MFIXTradeID|56=MU0319300002|34=16|52=20211215-09:08:47.023115674|10=136|8=FIX.4.4|9=73|35=0|49=MFIXTradeID|56=MU0319300002|34=17|52=20211215-09:08:55.023182867|10=144|8=FIX.4.4|9=73|35=0|49=MFIXTradeID|56=MU0319300002|34=18|52=20211215-09:09:03.023337577|10=139|8=FIX.4.4|9=73|35=0|49=MFIXTradeID|56=MU0319300002|34=19|52=20211215-09:09:11.024086093|10=134|8=FIX.4.4|9=73|35=0|49=MFIXTradeID|56=MU0319300002|34=20|52=20211215-09:09:19.024765997|10=151|8=FIX.4.4|9=73|35=0|49=MFIXTradeID|56=MU0319300002|34=21|52=20211215-09:09:27.885200915|10=140|8=FIX.4.4|9=95|35=1|49=MFIXTradeID|56=MU0319300002|34=22|52=20211215-09:09:34.885210186|112=20211215-09:09:34|10=203|8=FIX.4.4|9=73|35=0|49=MFIXTradeID|56=MU0319300002|34=23|52=20211215-09:09:42.886020283|10=138|8=FIX.4.4|9=73|35=0|49=MFIXTradeID|56=MU0319300002|34=24|52=20211215-09:09:50.886713785|10=154|8=FIX.4.4|9=73|35=0|49=MFIXTradeID|56=MU0319300002|34=25|52=20211215-09:09:58.887633090|10=154|8=FIX.4.4|9=73|35=0|49=MFIXTradeID|56=MU0319300002|34=26|52=20211215-09:10:06.886803906|10=144|8=FIX.4.4|9=73|35=0|49=MFIXTradeID|56=MU0319300002|34=27|52=20211215-09:10:14.887550259|10=145|8=FIX.4.4|9=73|35=0|49=MFIXTradeID|56=MU0319300002|34=28|52=20211215-09:10:22.888077484|10=150|8=FIX.4.4|9=73|35=0|49=MFIXTradeID|56=MU0319300002|34=29|52=20211215-09:10:30.887747130|10=141|8=FIX.4.4|9=73|35=0|49=MFIXTradeID|56=MU0319300002|34=30|52=20211215-09:10:38.887897267|10=158|8=FIX.4.4|9=73|35=0|49=MFIXTradeID|56=MU0319300002|34=31|52=20211215-09:10:46.889469957|10=161|8=FIX.4.4|9=73|35=0|49=MFIXTradeID|56=MU0319300002|34=32|52=20211215-09:10:55.694949027|10=147|8=FIX.4.4|9=73|35=0|49=MFIXTradeID|56=MU0319300002|34=33|52=20211215-09:11:03.695640876|10=143|8=FIX.4.4|9=73|35=0|49=MFIXTradeID|56=MU0319300002|34=34|52=20211215-09:11:11.694848880|10=147|8=FIX.4.4|9=73|35=0|49=MFIXTradeID|56=MU0319300002|34=35|52=20211215-09:11:19.696666297|10=158|8=FIX.4.4|9=73|35=0|49=MFIXTradeID|56=MU0319300002|34=36|52=20211215-09:11:27.697674556|10=156|8=FIX.4.4|9=73|35=0|49=MFIXTradeID|56=MU0319300002|34=37|52=20211215-09:11:35.697797550|10=156|8=FIX.4.4|9=73|35=0|49=MFIXTradeID|56=MU0319300002|34=38|52=20211215-09:11:43.698732292|10=149|8=FIX.4.4|9=73|35=0|49=MFIXTradeID|56=MU0319300002|34=39|52=20211215-09:11:51.698302913|10=142|8=FIX.4.4|9=73|35=0|49=MFIXTradeID|56=MU0319300002|34=40|52=20211215-09:11:59.699002111|10=130|8=FIX.4.4|9=73|35=0|49=MFIXTradeID|56=MU0319300002|34=41|52=20211215-09:12:07.698771477|10=152|8=FIX.4.4|9=73|35=0|49=MFIXTradeID|56=MU0319300002|34=42|52=20211215-09:12:15.700401646|10=124|8=FIX.4.4|9=73|35=0|49=MFIXTradeID|56=MU0319300002|34=43|52=20211215-09:12:24.382281387|10=139|8=FIX.4.4|9=73|35=0|49=MFIXTradeID|56=MU0319300002|34=44|52=20211215-09:12:32.381971062|10=134|8=FIX.4.4|9=73|35=0|49=MFIXTradeID|56=MU0319300002|34=45|52=20211215-09:12:40.384174832|10=137|8=FIX.4.4|9=73|35=0|49=MFIXTradeID|56=MU0319300002|34=46|52=20211215-09:12:49.190982713|10=147|8=FIX.4.4|9=73|35=0|49=MFIXTradeID|56=MU0319300002|34=47|52=20211215-09:12:57.190675575|10=152|8=FIX.4.4|9=73|35=0|49=MFIXTradeID|56=MU0319300002|34=48|52=20211215-09:13:05.191201887|10=139|8=FIX.4.4|9=73|35=0|49=MFIXTradeID|56=MU0319300002|34=49|52=20211215-09:13:13.191865831|10=144|8=FIX.4.4|9=73|35=0|49=MFIXTradeID|56=MU0319300002|34=50|52=20211215-09:13:21.192493945|10=139|8=FIX.4.4|9=73|35=0|49=MFIXTradeID|56=MU0319300002|34=51|52=20211215-09:13:29.193273018|10=136|8=FIX.4.4|9=73|35=0|49=MFIXTradeID|56=MU0319300002|34=52|52=20211215-09:13:37.195234995|10=149|8=FIX.4.4|9=73|35=0|49=MFIXTradeID|56=MU0319300002|34=53|52=20211215-09:13:45.194986462|10=151|8=FIX.4.4|9=73|35=0|49=MFIXTradeID|56=MU0319300002|34=54|52=20211215-09:13:53.198147611|10=140|8=FIX.4.4|9=73|35=0|49=MFIXTradeID|56=MU0319300002|34=55|52=20211215-09:14:01.198870872|10=147|8=FIX.4.4|9=73|35=0|49=MFIXTradeID|56=MU0319300002|34=56|52=20211215-09:14:09.200009633|10=129|8=FIX.4.4|9=73|35=0|49=MFIXTradeID|56=MU0319300002|34=57|52=20211215-09:14:17.200785346|10=141|8=FIX.4.4|9=73|35=0|49=MFIXTradeID|56=MU0319300002|34=58|52=20211215-09:14:25.200481067|10=134|8=FIX.4.4|9=73|35=0|49=MFIXTradeID|56=MU0319300002|34=59|52=20211215-09:14:33.202256114|10=129|8=FIX.4.4|9=73|35=0|49=MFIXTradeID|56=MU0319300002|34=60|52=20211215-09:14:41.203491280|10=126|8=FIX.4.4|9=73|35=0|49=MFIXTradeID|56=MU0319300002|34=61|52=20211215-09:14:49.204067270|10=134|8=FIX.4.4|9=73|35=0|49=MFIXTradeID|56=MU0319300002|34=62|52=20211215-09:14:57.205035861|10=136|8=FIX.4.4|9=73|35=0|49=MFIXTradeID|56=MU0319300002|34=63|52=20211215-09:15:05.205865151|10=134|8=FIX.4.4|9=73|35=0|49=MFIXTradeID|56=MU0319300002|34=64|52=20211215-09:15:13.207178737|10=143|8=FIX.4.4|9=73|35=0|49=MFIXTradeID|56=MU0319300002|34=65|52=20211215-09:15:21.888443749|10=156|8=FIX.4.4|9=73|35=0|49=MFIXTradeID|56=MU0319300002|34=66|52=20211215-09:15:29.888155611|10=153|8=FIX.4.4|9=73|35=0|49=MFIXTradeID|56=MU0319300002|34=67|52=20211215-09:15:37.889045580|10=157|8=FIX.4.4|9=73|35=0|49=MFIXTradeID|56=MU0319300002|34=68|52=20211215-09:15:45.888937780|10=168|8=FIX.4.4|9=73|35=0|49=MFIXTradeID|56=MU0319300002|34=69|52=20211215-09:15:53.890673113|10=148|8=FIX.4.4|9=73|35=0|49=MFIXTradeID|56=MU0319300002|34=70|52=20211215-09:16:01.891441472|10=136|8=FIX.4.4|9=73|35=0|49=MFIXTradeID|56=MU0319300002|34=71|52=20211215-09:16:09.891623164|10=145|8=FIX.4.4|9=73|35=0|49=MFIXTradeID|56=MU0319300002|34=72|52=20211215-09:16:17.891327638|10=152|8=FIX.4.4|9=73|35=0|49=MFIXTradeID|56=MU0319300002|34=73|52=20211215-09:16:25.892939755|10=162|8=FIX.4.4|9=73|35=0|49=MFIXTradeID|56=MU0319300002|34=74|52=20211215-09:16:33.893487229|10=157|8=FIX.4.4|9=73|35=0|49=MFIXTradeID|56=MU0319300002|34=75|52=20211215-09:16:41.894533617|10=151|8=FIX.4.4|9=73|35=0|49=MFIXTradeID|56=MU0319300002|34=76|52=20211215-09:16:50.592658752|10=155|8=FIX.4.4|9=73|35=0|49=MFIXTradeID|56=MU0319300002|34=77|52=20211215-09:16:58.594314625|10=154|8=FIX.4.4|9=73|35=0|49=MFIXTradeID|56=MU0319300002|34=78|52=20211215-09:17:06.593959324|10=159|8=FIX.4.4|9=73|35=0|49=MFIXTradeID|56=MU0319300002|34=79|52=20211215-09:17:14.594436126|10=150|8=FIX.4.4|9=73|35=0|49=MFIXTradeID|56=MU0319300002|34=80|52=20211215-09:17:22.594024596|10=145|8=FIX.4.4|9=73|35=0|49=MFIXTradeID|56=MU0319300002|34=81|52=20211215-09:17:30.595620279|10=146|8=FIX.4.4|9=73|35=0|49=MFIXTradeID|56=MU0319300002|34=82|52=20211215-09:17:38.596687352|10=161|8=FIX.4.4|9=73|35=0|49=MFIXTradeID|56=MU0319300002|34=83|52=20211215-09:17:46.596456510|10=151|8=FIX.4.4|9=73|35=0|49=MFIXTradeID|56=MU0319300002|34=84|52=20211215-09:17:54.596264058|10=155|8=FIX.4.4|9=73|35=0|49=MFIXTradeID|56=MU0319300002|34=85|52=20211215-09:18:02.597088004|10=146|8=FIX.4.4|9=73|35=0|49=MFIXTradeID|56=MU0319300002|34=86|52=20211215-09:18:10.597023838|10=150|8=FIX.4.4|9=73|35=0|49=MFIXTradeID|56=MU0319300002|34=87|52=20211215-09:18:19.237752963|10=159|8=FIX.4.4|9=73|35=0|49=MFIXTradeID|56=MU0319300002|34=88|52=20211215-09:18:27.237192552|10=151|8=FIX.4.4|9=73|35=0|49=MFIXTradeID|56=MU0319300002|34=89|52=20211215-09:18:35.238184505|10=151|8=FIX.4.4|9=73|35=0|49=MFIXTradeID|56=MU0319300002|34=90|52=20211215-09:18:43.238718379|10=154|8=FIX.4.4|9=73|35=0|49=MFIXTradeID|56=MU0319300002|34=91|52=20211215-09:18:51.240387578|10=150|8=FIX.4.4|9=73|35=0|49=MFIXTradeID|56=MU0319300002|34=92|52=20211215-09:18:59.240373629|10=151|8=FIX.4.4|9=73|35=0|49=MFIXTradeID|56=MU0319300002|34=93|52=20211215-09:19:07.242031834|10=137|8=FIX.4.4|9=73|35=0|49=MFIXTradeID|56=MU0319300002|34=94|52=20211215-09:19:15.242057922|10=143|8=FIX.4.4|9=73|35=0|49=MFIXTradeID|56=MU0319300002|34=95|52=20211215-09:19:23.243951681|10=149|8=FIX.4.4|9=73|35=0|49=MFIXTradeID|56=MU0319300002|34=96|52=20211215-09:19:31.243987146|10=154|8=FIX.4.4|9=73|35=0|49=MFIXTradeID|56=MU0319300002|34=97|52=20211215-09:19:39.245053959|10=161|8=FIX.4.4|9=73|35=0|49=MFIXTradeID|56=MU0319300002|34=98|52=20211215-09:19:48.106530801|10=144|8=FIX.4.4|9=73|35=0|49=MFIXTradeID|56=MU0319300002|34=99|52=20211215-09:19:56.106295257|10=157|8=FIX.4.4|9=74|35=0|49=MFIXTradeID|56=MU0319300002|34=100|52=20211215-09:20:04.107244472|10=168|8=FIX.4.4|9=74|35=0|49=MFIXTradeID|56=MU0319300002|34=101|52=20211215-09:20:12.107233194|10=167|8=FIX.4.4|9=74|35=0|49=MFIXTradeID|56=MU0319300002|34=102|52=20211215-09:20:20.107051704|10=162|8=FIX.4.4|9=74|35=0|49=MFIXTradeID|56=MU0319300002|34=103|52=20211215-09:20:28.107571178|10=183|8=FIX.4.4|9=74|35=0|49=MFIXTradeID|56=MU0319300002|34=104|52=20211215-09:20:36.107076192|10=179|8=FIX.4.4|9=74|35=0|49=MFIXTradeID|56=MU0319300002|34=105|52=20211215-09:20:44.108036612|10=173|8=FIX.4.4|9=74|35=0|49=MFIXTradeID|56=MU0319300002|34=106|52=20211215-09:20:52.107797254|10=188|8=FIX.4.4|9=74|35=0|49=MFIXTradeID|56=MU0319300002|34=107|52=20211215-09:21:00.109657308|10=180|8=FIX.4.4|9=74|35=0|49=MFIXTradeID|56=MU0319300002|34=108|52=20211215-09:21:09.817190148|10=190|8=FIX.4.4|9=74|35=0|49=MFIXTradeID|56=MU0319300002|34=109|52=20211215-09:21:16.817171210|10=178|8=FIX.4.4|9=74|35=0|49=MFIXTradeID|56=MU0319300002|34=110|52=20211215-09:21:24.817575365|10=188|8=FIX.4.4|9=74|35=0|49=MFIXTradeID|56=MU0319300002|34=111|52=20211215-09:21:32.817228663|10=184|8=FIX.4.4|9=74|35=0|49=MFIXTradeID|56=MU0319300002|34=112|52=20211215-09:21:40.817038482|10=182|8=FIX.4.4|9=74|35=0|49=MFIXTradeID|56=MU0319300002|34=113|52=20211215-09:21:48.818653997|10=206|8=FIX.4.4|9=74|35=0|49=MFIXTradeID|56=MU0319300002|34=114|52=20211215-09:21:56.819322646|10=191|8=FIX.4.4|9=74|35=0|49=MFIXTradeID|56=MU0319300002|34=115|52=20211215-09:22:04.820301522|10=168|8=FIX.4.4|9=74|35=0|49=MFIXTradeID|56=MU0319300002|34=116|52=20211215-09:22:12.821625729|10=187|8=FIX.4.4|9=74|35=0|49=MFIXTradeID|56=MU0319300002|34=117|52=20211215-09:22:20.822148895|10=192|8=FIX.4.4|9=74|35=0|49=MFIXTradeID|56=MU0319300002|34=118|52=20211215-09:22:28.823587627|10=202|8=FIX.4.4|9=74|35=0|49=MFIXTradeID|56=MU0319300002|34=119|52=20211215-09:22:37.409398196|10=204|8=FIX.4.4|9=74|35=0|49=MFIXTradeID|56=MU0319300002|34=120|52=20211215-09:22:45.409170418|10=180|8=FIX.4.4|9=74|35=0|49=MFIXTradeID|56=MU0319300002|34=121|52=20211215-09:22:53.409085500|10=177|8=FIX.4.4|9=74|35=0|49=MFIXTradeID|56=MU0319300002|34=122|52=20211215-09:23:01.409786134|10=183|8=FIX.4.4|9=74|35=0|49=MFIXTradeID|56=MU0319300002|34=123|52=20211215-09:23:09.410502588|10=183|8=FIX.4.4|9=74|35=0|49=MFIXTradeID|56=MU0319300002|34=124|52=20211215-09:23:17.411745497|10=192|8=FIX.4.4|9=74|35=0|49=MFIXTradeID|56=MU0319300002|34=125|52=20211215-09:23:25.412496218|10=187|8=FIX.4.4|9=74|35=0|49=MFIXTradeID|56=MU0319300002|34=126|52=20211215-09:23:33.413168647|10=190|8=FIX.4.4|9=74|35=0|49=MFIXTradeID|56=MU0319300002|34=127|52=20211215-09:23:41.413069689|10=196|8=FIX.4.4|9=74|35=0|49=MFIXTradeID|56=MU0319300002|34=128|52=20211215-09:23:49.413713548|10=195|8=FIX.4.4|9=74|35=0|49=MFIXTradeID|56=MU0319300002|34=129|52=20211215-09:23:57.413692435|10=196|8=FIX.4.4|9=74|35=0|49=MFIXTradeID|56=MU0319300002|34=130|52=20211215-09:24:06.257142490|10=180|8=FIX.4.4|9=74|35=0|49=MFIXTradeID|56=MU0319300002|34=131|52=20211215-09:24:14.257590811|10=184|8=FIX.4.4|9=74|35=0|49=MFIXTradeID|56=MU0319300002|34=132|52=20211215-09:24:22.257414682|10=185|8=FIX.4.4|9=74|35=0|49=MFIXTradeID|56=MU0319300002|34=133|52=20211215-09:24:30.257052367|10=183|8=FIX.4.4|9=74|35=0|49=MFIXTradeID|56=MU0319300002|34=134|52=20211215-09:24:38.257655716|10=199|8=FIX.4.4|9=74|35=0|49=MFIXTradeID|56=MU0319300002|34=135|52=20211215-09:24:46.259557679|10=210|8=FIX.4.4|9=74|35=0|49=MFIXTradeID|56=MU0319300002|34=136|52=20211215-09:24:54.259261748|10=199|8=FIX.4.4|9=74|35=0|49=MFIXTradeID|56=MU0319300002|34=137|52=20211215-09:25:02.258929516|10=197|8=FIX.4.4|9=74|35=0|49=MFIXTradeID|56=MU0319300002|34=138|52=20211215-09:25:10.258971085|10=195|8=FIX.4.4|9=74|35=0|49=MFIXTradeID|56=MU0319300002|34=139|52=20211215-09:25:18.259207945|10=202|8=FIX.4.4|9=74|35=0|49=MFIXTradeID|56=MU0319300002|34=140|52=20211215-09:25:26.259651857|10=198|8=FIX.4.4|9=74|35=0|49=MFIXTradeID|56=MU0319300002|34=141|52=20211215-09:25:35.034139567|10=189|8=FIX.4.4|9=74|35=0|49=MFIXTradeID|56=MU0319300002|34=142|52=20211215-09:25:43.034830603|10=178|8=FIX.4.4|9=74|35=0|49=MFIXTradeID|56=MU0319300002|34=143|52=20211215-09:25:51.035674430|10=183|8=FIX.4.4|9=74|35=0|49=MFIXTradeID|56=MU0319300002|34=144|52=20211215-09:25:59.035391329|10=195|8=FIX.4.4|9=74|35=0|49=MFIXTradeID|56=MU0319300002|34=145|52=20211215-09:26:07.035157156|10=188|8=FIX.4.4|9=74|35=0|49=MFIXTradeID|56=MU0319300002|34=146|52=20211215-09:26:15.035531731|10=183|8=FIX.4.4|9=74|35=0|49=MFIXTradeID|56=MU0319300002|34=147|52=20211215-09:26:23.035292421|10=183|8=FIX.4.4|9=74|35=0|49=MFIXTradeID|56=MU0319300002|34=148|52=20211215-09:26:31.034911085|10=186|8=FIX.4.4|9=74|35=0|49=MFIXTradeID|56=MU0319300002|34=149|52=20211215-09:26:39.036489814|10=207|8=FIX.4.4|9=74|35=0|49=MFIXTradeID|56=MU0319300002|34=150|52=20211215-09:26:47.037440031|10=177|8=FIX.4.4|9=74|35=0|49=MFIXTradeID|56=MU0319300002|34=151|52=20211215-09:26:55.037234947|10=194|8=FIX.4.4|9=74|35=0|49=MFIXTradeID|56=MU0319300002|34=152|52=20211215-09:27:03.904171024|10=178|8=FIX.4.4|9=74|35=0|49=MFIXTradeID|56=MU0319300002|34=153|52=20211215-09:27:11.904796737|10=202|8=FIX.4.4|9=74|35=0|49=MFIXTradeID|56=MU0319300002|34=154|52=20211215-09:27:19.905892109|10=202|8=FIX.4.4|9=74|35=0|49=MFIXTradeID|56=MU0319300002|34=155|52=20211215-09:27:27.905769526|10=208|8=FIX.4.4|9=74|35=0|49=MFIXTradeID|56=MU0319300002|34=156|52=20211215-09:27:35.906079530|10=198|8=FIX.4.4|9=74|35=0|49=MFIXTradeID|56=MU0319300002|34=157|52=20211215-09:27:43.906990318|10=204|8=FIX.4.4|9=74|35=0|49=MFIXTradeID|56=MU0319300002|34=158|52=20211215-09:27:51.907565706|10=204|8=FIX.4.4|9=74|35=0|49=MFIXTradeID|56=MU0319300002|34=159|52=20211215-09:27:59.907242311|10=197|8=FIX.4.4|9=74|35=0|49=MFIXTradeID|56=MU0319300002|34=160|52=20211215-09:28:07.906998915|10=210|8=FIX.4.4|9=74|35=0|49=MFIXTradeID|56=MU0319300002|34=161|52=20211215-09:28:15.907022452|10=185|8=FIX.4.4|9=74|35=0|49=MFIXTradeID|56=MU0319300002|34=162|52=20211215-09:28:23.907724797|10=206|8=FIX.4.4|9=74|35=0|49=MFIXTradeID|56=MU0319300002|34=163|52=20211215-09:28:32.632774997|10=209|8=FIX.4.4|9=74|35=0|49=MFIXTradeID|56=MU0319300002|34=164|52=20211215-09:28:40.634653195|10=197|8=FIX.4.4|9=74|35=0|49=MFIXTradeID|56=MU0319300002|34=165|52=20211215-09:28:48.634633855|10=207|8=FIX.4.4|9=74|35=0|49=MFIXTradeID|56=MU0319300002|34=166|52=20211215-09:28:56.634280548|10=204|8=FIX.4.4|9=74|35=0|49=MFIXTradeID|56=MU0319300002|34=167|52=20211215-09:29:04.633880779|10=210|8=FIX.4.4|9=74|35=0|49=MFIXTradeID|56=MU0319300002|34=168|52=20211215-09:29:12.634365943|10=202|8=FIX.4.4|9=74|35=0|49=MFIXTradeID|56=MU0319300002|34=169|52=20211215-09:29:20.634212835|10=193|8=FIX.4.4|9=74|35=0|49=MFIXTradeID|56=MU0319300002|34=170|52=20211215-09:29:28.634630070|10=188|8=FIX.4.4|9=74|35=0|49=MFIXTradeID|56=MU0319300002|34=171|52=20211215-09:29:36.634243370|10=191|8=FIX.4.4|9=74|35=0|49=MFIXTradeID|56=MU0319300002|34=172|52=20211215-09:29:44.634112114|10=182|8=FIX.4.4|9=74|35=0|49=MFIXTradeID|56=MU0319300002|34=173|52=20211215-09:29:52.634845964|10=208|8=FIX.4.4|9=74|35=0|49=MFIXTradeID|56=MU0319300002|34=174|52=20211215-09:30:01.345618583|10=189|8=FIX.4.4|9=74|35=0|49=MFIXTradeID|56=MU0319300002|34=175|52=20211215-09:30:09.345398379|10=206|8=FIX.4.4|9=74|35=0|49=MFIXTradeID|56=MU0319300002|34=176|52=20211215-09:30:17.345484650|10=194|8=FIX.4.4|9=74|35=0|49=MFIXTradeID|56=MU0319300002|34=177|52=20211215-09:30:25.346116519|10=191|8=FIX.4.4|9=74|35=0|49=MFIXTradeID|56=MU0319300002|34=178|52=20211215-09:30:33.346712545|10=192|8=FIX.4.4|9=74|35=0|49=MFIXTradeID|56=MU0319300002|34=179|52=20211215-09:30:41.346519290|10=194|8=FIX.4.4|9=74|35=0|49=MFIXTradeID|56=MU0319300002|34=180|52=20211215-09:30:49.346585778|10=208|8=FIX.4.4|9=74|35=0|49=MFIXTradeID|56=MU0319300002|34=181|52=20211215-09:30:57.346292176|10=195|8=FIX.4.4|9=74|35=0|49=MFIXTradeID|56=MU0319300002|34=182|52=20211215-09:31:05.347256812|10=188|8=FIX.4.4|9=74|35=0|49=MFIXTradeID|56=MU0319300002|34=183|52=20211215-09:31:13.346987991|10=206|8=FIX.4.4|9=74|35=0|49=MFIXTradeID|56=MU0319300002|34=184|52=20211215-09:31:21.347129029|10=187|8=FIX.4.4|9=74|35=0|49=MFIXTradeID|56=MU0319300002|34=185|52=20211215-09:31:30.120597107|10=183|8=FIX.4.4|9=74|35=0|49=MFIXTradeID|56=MU0319300002|34=186|52=20211215-09:31:38.120329981|10=195|8=FIX.4.4|9=74|35=0|49=MFIXTradeID|56=MU0319300002|34=187|52=20211215-09:31:46.120485231|10=186|8=FIX.4.4|9=74|35=0|49=MFIXTradeID|56=MU0319300002|34=188|52=20211215-09:31:54.120374754|10=193|8=FIX.4.4|9=74|35=0|49=MFIXTradeID|56=MU0319300002|34=189|52=20211215-09:32:02.120069103|10=177|8=FIX.4.4|9=74|35=0|49=MFIXTradeID|56=MU0319300002|34=190|52=20211215-09:32:10.119852612|10=181|8=FIX.4.4|9=74|35=0|49=MFIXTradeID|56=MU0319300002|34=191|52=20211215-09:32:18.120566512|10=183|8=FIX.4.4|9=74|35=0|49=MFIXTradeID|56=MU0319300002|34=192|52=20211215-09:32:26.120191700|10=176|8=FIX.4.4|9=74|35=0|49=MFIXTradeID|56=MU0319300002|34=193|52=20211215-09:32:34.121660692|10=188|8=FIX.4.4|9=74|35=0|49=MFIXTradeID|56=MU0319300002|34=194|52=20211215-09:32:42.122385058|10=189|8=FIX.4.4|9=74|35=0|49=MFIXTradeID|56=MU0319300002|34=195|52=20211215-09:32:51.900788568|10=207|8=FIX.4.4|9=74|35=0|49=MFIXTradeID|56=MU0319300002|34=196|52=20211215-09:32:58.902240094|10=194|8=FIX.4.4|9=74|35=0|49=MFIXTradeID|56=MU0319300002|34=197|52=20211215-09:33:06.901745167|10=199|8=FIX.4.4|9=74|35=0|49=MFIXTradeID|56=MU0319300002|34=198|52=20211215-09:33:14.902505872|10=197|8=FIX.4.4|9=74|35=0|49=MFIXTradeID|56=MU0319300002|34=199|52=20211215-09:33:22.903464552|10=197|8=FIX.4.4|9=74|35=0|49=MFIXTradeID|56=MU0319300002|34=200|52=20211215-09:33:30.902970513|10=177|8=FIX.4.4|9=74|35=0|49=MFIXTradeID|56=MU0319300002|34=201|52=20211215-09:33:38.903696072|10=192|8=FIX.4.4|9=74|35=0|49=MFIXTradeID|56=MU0319300002|34=202|52=20211215-09:33:46.903867323|10=191|8=FIX.4.4|9=74|35=0|49=MFIXTradeID|56=MU0319300002|34=203|52=20211215-09:33:54.904717816|10=193|8=FIX.4.4|9=74|35=0|49=MFIXTradeID|56=MU0319300002|34=204|52=20211215-09:34:02.905313923|10=180|8=FIX.4.4|9=74|35=0|49=MFIXTradeID|56=MU0319300002|34=205|52=20211215-09:34:10.904994643|10=193|8=FIX.4.4|9=74|35=0|49=MFIXTradeID|56=MU0319300002|34=206|52=20211215-09:34:19.594061709|10=196|8=FIX.4.4|9=74|35=0|49=MFIXTradeID|56=MU0319300002|34=207|52=20211215-09:34:27.593938541|10=202|8=FIX.4.4|9=74|35=0|49=MFIXTradeID|56=MU0319300002|34=208|52=20211215-09:34:35.594520045|10=189|8=FIX.4.4|9=74|35=0|49=MFIXTradeID|56=MU0319300002|34=209|52=20211215-09:34:43.595134426|10=194|8=FIX.4.4|9=74|35=0|49=MFIXTradeID|56=MU0319300002|34=210|52=20211215-09:34:51.595265413|10=186|8=FIX.4.4|9=74|35=0|49=MFIXTradeID|56=MU0319300002|34=211|52=20211215-09:34:59.596109435|10=197|8=FIX.4.4|9=74|35=0|49=MFIXTradeID|56=MU0319300002|34=212|52=20211215-09:35:07.595691343|10=195|8=FIX.4.4|9=74|35=0|49=MFIXTradeID|56=MU0319300002|34=213|52=20211215-09:35:15.597365990|10=203|8=FIX.4.4|9=74|35=0|49=MFIXTradeID|56=MU0319300002|34=214|52=20211215-09:35:23.597367631|10=197|8=FIX.4.4|9=74|35=0|49=MFIXTradeID|56=MU0319300002|34=215|52=20211215-09:35:31.596918704|10=199|8=FIX.4.4|9=74|35=0|49=MFIXTradeID|56=MU0319300002|34=216|52=20211215-09:35:39.596901441|10=198|8=FIX.4.4|9=74|35=0|49=MFIXTradeID|56=MU0319300002|34=217|52=20211215-09:35:48.340787565|10=205|8=FIX.4.4|9=74|35=0|49=MFIXTradeID|56=MU0319300002|34=218|52=20211215-09:35:56.341328640|10=191|8=FIX.4.4|9=74|35=0|49=MFIXTradeID|56=MU0319300002|34=219|52=20211215-09:36:04.341984978|10=208|8=FIX.4.4|9=74|35=0|49=MFIXTradeID|56=MU0319300002|34=220|52=20211215-09:36:12.342903338|10=181|8=FIX.4.4|9=74|35=0|49=MFIXTradeID|56=MU0319300002|34=221|52=20211215-09:36:20.344720156|10=178|8=FIX.4.4|9=74|35=0|49=MFIXTradeID|56=MU0319300002|34=222|52=20211215-09:36:28.346678903|10=201|8=FIX.4.4|9=74|35=0|49=MFIXTradeID|56=MU0319300002|34=223|52=20211215-09:36:36.347301292|10=186|8=FIX.4.4|9=74|35=0|49=MFIXTradeID|56=MU0319300002|34=224|52=20211215-09:36:44.348142403|10=184|8=FIX.4.4|9=74|35=0|49=MFIXTradeID|56=MU0319300002|34=225|52=20211215-09:36:52.349474579|10=207|8=FIX.4.4|9=74|35=0|49=MFIXTradeID|56=MU0319300002|34=226|52=20211215-09:37:00.350273159|10=185|8=FIX.4.4|9=74|35=0|49=MFIXTradeID|56=MU0319300002|34=227|52=20211215-09:37:09.110077336|10=188|8=FIX.4.4|9=74|35=0|49=MFIXTradeID|56=MU0319300002|34=228|52=20211215-09:37:17.193053584|10=198|8=FIX.4.4|9=74|35=0|49=MFIXTradeID|56=MU0319300002|34=229|52=20211215-09:37:25.195099208|10=203|8=FIX.4.4|9=74|35=0|49=MFIXTradeID|56=MU0319300002|34=230|52=20211215-09:37:33.195584878|10=206|8=FIX.4.4|9=74|35=0|49=MFIXTradeID|56=MU0319300002|34=231|52=20211215-09:37:41.195097832|10=195|8=FIX.4.4|9=74|35=0|49=MFIXTradeID|56=MU0319300002|34=232|52=20211215-09:37:49.195009134|10=192|8=FIX.4.4|9=74|35=0|49=MFIXTradeID|56=MU0319300002|34=233|52=20211215-09:37:57.195641036|10=195|8=FIX.4.4|9=74|35=0|49=MFIXTradeID|56=MU0319300002|34=234|52=20211215-09:38:05.196553475|10=200|8=FIX.4.4|9=74|35=0|49=MFIXTradeID|56=MU0319300002|34=235|52=20211215-09:38:13.196185228|10=197|8=FIX.4.4|9=74|35=0|49=MFIXTradeID|56=MU0319300002|34=236|52=20211215-09:38:21.196163305|10=189|8=FIX.4.4|9=74|35=0|49=MFIXTradeID|56=MU0319300002|34=237|52=20211215-09:38:29.196738159|10=213|8=FIX.4.4|9=74|35=0|49=MFIXTradeID|56=MU0319300002|34=238|52=20211215-09:38:37.196260505|10=198|8=FIX.4.4|9=74|35=0|49=MFIXTradeID|56=MU0319300002|34=239|52=20211215-09:38:45.964681903|10=210|8=FIX.4.4|9=74|35=0|49=MFIXTradeID|56=MU0319300002|34=240|52=20211215-09:38:53.964950385|10=204|8=FIX.4.4|9=74|35=0|49=MFIXTradeID|56=MU0319300002|34=241|52=20211215-09:39:01.966694159|10=205|8=FIX.4.4|9=74|35=0|49=MFIXTradeID|56=MU0319300002|34=242|52=20211215-09:39:09.966628097|10=212|8=FIX.4.4|9=74|35=0|49=MFIXTradeID|56=MU0319300002|34=243|52=20211215-09:39:17.966251568|10=207|8=FIX.4.4|9=74|35=0|49=MFIXTradeID|56=MU0319300002|34=244|52=20211215-09:39:25.966068793|10=213|8=FIX.4.4|9=74|35=0|49=MFIXTradeID|56=MU0319300002|34=245|52=20211215-09:39:33.965950574|10=209|8=FIX.4.4|9=74|35=0|49=MFIXTradeID|56=MU0319300002|34=246|52=20211215-09:39:41.967622029|10=202|8=FIX.4.4|9=74|35=0|49=MFIXTradeID|56=MU0319300002|34=247|52=20211215-09:39:49.967607502|10=210|8=FIX.4.4|9=74|35=0|49=MFIXTradeID|56=MU0319300002|34=248|52=20211215-09:39:57.967160908|10=214|8=FIX.4.4|9=74|35=0|49=MFIXTradeID|56=MU0319300002|34=249|52=20211215-09:40:05.966781447|10=206|8=FIX.4.4|9=74|35=0|49=MFIXTradeID|56=MU0319300002|34=250|52=20211215-09:40:14.779383526|10=196|8=FIX.4.4|9=74|35=0|49=MFIXTradeID|56=MU0319300002|34=251|52=20211215-09:40:22.778744241|10=190|8=FIX.4.4|9=74|35=0|49=MFIXTradeID|56=MU0319300002|34=252|52=20211215-09:40:30.779469080|10=196|8=FIX.4.4|9=74|35=0|49=MFIXTradeID|56=MU0319300002|34=253|52=20211215-09:40:38.780101236|10=183|8=FIX.4.4|9=74|35=0|49=MFIXTradeID|56=MU0319300002|34=254|52=20211215-09:40:46.779766650|10=208|8=FIX.4.4|9=74|35=0|49=MFIXTradeID|56=MU0319300002|34=255|52=20211215-09:40:54.779797530|10=209|8=FIX.4.4|9=74|35=0|49=MFIXTradeID|56=MU0319300002|34=256|52=20211215-09:41:02.781268756|10=200|8=FIX.4.4|9=74|35=0|49=MFIXTradeID|56=MU0319300002|34=257|52=20211215-09:41:10.781491625|10=193|8=FIX.4.4|9=74|35=0|49=MFIXTradeID|56=MU0319300002|34=258|52=20211215-09:41:18.782232846|10=201|8=FIX.4.4|9=74|35=0|49=MFIXTradeID|56=MU0319300002|34=259|52=20211215-09:41:26.782701462|10=196|8=FIX.4.4|9=74|35=0|49=MFIXTradeID|56=MU0319300002|34=260|52=20211215-09:41:34.783484696|10=205|8=FIX.4.4|9=74|35=0|49=MFIXTradeID|56=MU0319300002|34=261|52=20211215-09:41:43.480130735|10=182|8=FIX.4.4|9=74|35=0|49=MFIXTradeID|56=MU0319300002|34=262|52=20211215-09:41:51.480133990|10=188|8=FIX.4.4|9=74|35=0|49=MFIXTradeID|56=MU0319300002|34=263|52=20211215-09:41:59.479892445|10=212|8=FIX.4.4|9=74|35=0|49=MFIXTradeID|56=MU0319300002|34=264|52=20211215-09:42:07.480670370|10=190|8=FIX.4.4|9=74|35=0|49=MFIXTradeID|56=MU0319300002|34=265|52=20211215-09:42:15.481602570|10=188|8=FIX.4.4|9=74|35=0|49=MFIXTradeID|56=MU0319300002|34=266|52=20211215-09:42:23.481977769|10=213|8=FIX.4.4|9=74|35=0|49=MFIXTradeID|56=MU0319300002|34=267|52=20211215-09:42:31.482801515|10=189|8=FIX.4.4|9=74|35=0|49=MFIXTradeID|56=MU0319300002|34=268|52=20211215-09:42:39.482393833|10=207|8=FIX.4.4|9=74|35=0|49=MFIXTradeID|56=MU0319300002|34=269|52=20211215-09:42:47.483174782|10=208|8=FIX.4.4|9=74|35=0|49=MFIXTradeID|56=MU0319300002|34=270|52=20211215-09:42:55.484661270|10=193|8=FIX.4.4|9=74|35=0|49=MFIXTradeID|56=MU0319300002|34=271|52=20211215-09:43:03.484226100|10=177|8=FIX.4.4|9=74|35=0|49=MFIXTradeID|56=MU0319300002|34=272|52=20211215-09:43:12.240424319|10=180|8=FIX.4.4|9=74|35=0|49=MFIXTradeID|56=MU0319300002|34=273|52=20211215-09:43:20.240282827|10=186|8=FIX.4.4|9=74|35=0|49=MFIXTradeID|56=MU0319300002|34=274|52=20211215-09:43:28.240181619|10=192|8=FIX.4.4|9=74|35=0|49=MFIXTradeID|56=MU0319300002|34=275|52=20211215-09:43:36.240067326|10=190|8=FIX.4.4|9=74|35=0|49=MFIXTradeID|56=MU0319300002|34=276|52=20211215-09:43:44.241924692|10=199|8=FIX.4.4|9=74|35=0|49=MFIXTradeID|56=MU0319300002|34=277|52=20211215-09:43:52.241808706|10=196|8=FIX.4.4|9=74|35=0|49=MFIXTradeID|56=MU0319300002|34=278|52=20211215-09:44:00.243503929|10=192|8=FIX.4.4|9=74|35=0|49=MFIXTradeID|56=MU0319300002|34=279|52=20211215-09:44:08.244293314|10=196|8=FIX.4.4|9=74|35=0|49=MFIXTradeID|56=MU0319300002|34=280|52=20211215-09:44:16.245166692|10=196|8=FIX.4.4|9=74|35=0|49=MFIXTradeID|56=MU0319300002|34=281|52=20211215-09:44:24.245268191|10=193|8=FIX.4.4|9=74|35=0|49=MFIXTradeID|56=MU0319300002|34=282|52=20211215-09:44:33.976006076|10=197|8=FIX.4.4|9=74|35=0|49=MFIXTradeID|56=MU0319300002|34=283|52=20211215-09:44:40.977276103|10=197|8=FIX.4.4|9=74|35=0|49=MFIXTradeID|56=MU0319300002|34=284|52=20211215-09:44:48.977795884|10=228|8=FIX.4.4|9=74|35=0|49=MFIXTradeID|56=MU0319300002|34=285|52=20211215-09:44:56.978120377|10=208|8=FIX.4.4|9=74|35=0|49=MFIXTradeID|56=MU0319300002|34=286|52=20211215-09:45:04.977795048|10=215|8=FIX.4.4|9=74|35=0|49=MFIXTradeID|56=MU0319300002|34=287|52=20211215-09:45:12.978432202|10=196|8=FIX.4.4|9=74|35=0|49=MFIXTradeID|56=MU0319300002|34=288|52=20211215-09:45:20.979173252|10=204|8=FIX.4.4|9=74|35=0|49=MFIXTradeID|56=MU0319300002|34=289|52=20211215-09:45:28.980289432|10=213|8=FIX.4.4|9=74|35=0|49=MFIXTradeID|56=MU0319300002|34=290|52=20211215-09:45:37.038202306|10=184|8=FIX.4.4|9=74|35=0|49=MFIXTradeID|56=MU0319300002|34=291|52=20211215-09:45:45.037982055|10=199|8=FIX.4.4|9=74|35=0|49=MFIXTradeID|56=MU0319300002|34=292|52=20211215-09:45:53.039089424|10=199|8=FIX.4.4|9=74|35=0|49=MFIXTradeID|56=MU0319300002|34=293|52=20211215-09:46:01.769286803|10=204|8=FIX.4.4|9=74|35=0|49=MFIXTradeID|56=MU0319300002|34=294|52=20211215-09:46:09.768891721|10=213|8=FIX.4.4|9=74|35=0|49=MFIXTradeID|56=MU0319300002|34=295|52=20211215-09:46:17.769792517|10=217|8=FIX.4.4|9=74|35=0|49=MFIXTradeID|56=MU0319300002|34=296|52=20211215-09:46:25.769875535|10=219|8=FIX.4.4|9=74|35=0|49=MFIXTradeID|56=MU0319300002|34=297|52=20211215-09:46:33.770648088|10=212|8=FIX.4.4|9=74|35=0|49=MFIXTradeID|56=MU0319300002|34=298|52=20211215-09:46:41.770267644|10=207|8=FIX.4.4|9=74|35=0|49=MFIXTradeID|56=MU0319300002|34=299|52=20211215-09:46:49.770910488|10=217|8=FIX.4.4|9=74|35=0|49=MFIXTradeID|56=MU0319300002|34=300|52=20211215-09:46:57.771686207|10=199|8=FIX.4.4|9=74|35=0|49=MFIXTradeID|56=MU0319300002|34=301|52=20211215-09:47:05.772415617|10=190|8=FIX.4.4|9=74|35=0|49=MFIXTradeID|56=MU0319300002|34=302|52=20211215-09:47:13.773134991|10=194|8=FIX.4.4|9=74|35=0|49=MFIXTradeID|56=MU0319300002|34=303|52=20211215-09:47:21.772840182|10=189|8=FIX.4.4|9=74|35=0|49=MFIXTradeID|56=MU0319300002|34=304|52=20211215-09:47:30.636813837|10=196|8=FIX.4.4|9=74|35=0|49=MFIXTradeID|56=MU0319300002|34=305|52=20211215-09:47:38.637151622|10=193|8=FIX.4.4|9=74|35=0|49=MFIXTradeID|56=MU0319300002|34=306|52=20211215-09:47:46.637886762|10=213|8=FIX.4.4|9=74|35=0|49=MFIXTradeID|56=MU0319300002|34=307|52=20211215-09:47:54.637818242|10=201|8=FIX.4.4|9=74|35=0|49=MFIXTradeID|56=MU0319300002|34=308|52=20211215-09:48:02.638470200|10=185|8=FIX.4.4|9=74|35=0|49=MFIXTradeID|56=MU0319300002|34=309|52=20211215-09:48:10.638037295|10=198|8=FIX.4.4|9=74|35=0|49=MFIXTradeID|56=MU0319300002|34=310|52=20211215-09:48:18.638846138|10=202|8=FIX.4.4|9=74|35=0|49=MFIXTradeID|56=MU0319300002|34=311|52=20211215-09:48:26.639711981|10=200|8=FIX.4.4|9=74|35=0|49=MFIXTradeID|56=MU0319300002|34=312|52=20211215-09:48:34.640543834|10=192|8=FIX.4.4|9=74|35=0|49=MFIXTradeID|56=MU0319300002|34=313|52=20211215-09:48:42.641079510|10=188|8=FIX.4.4|9=74|35=0|49=MFIXTradeID|56=MU0319300002|34=314|52=20211215-09:48:50.640700066|10=184|8=FIX.4.4|9=74|35=0|49=MFIXTradeID|56=MU0319300002|34=315|52=20211215-09:48:59.391546941|10=207|8=FIX.4.4|9=74|35=0|49=MFIXTradeID|56=MU0319300002|34=316|52=20211215-09:49:07.391179838|10=209|8=FIX.4.4|9=74|35=0|49=MFIXTradeID|56=MU0319300002|34=317|52=20211215-09:49:15.390997775|10=216|8=FIX.4.4|9=74|35=0|49=MFIXTradeID|56=MU0319300002|34=318|52=20211215-09:49:23.392548505|10=201|8=FIX.4.4|9=74|35=0|49=MFIXTradeID|56=MU0319300002|34=319|52=20211215-09:49:31.392744255|10=201|8=FIX.4.4|9=74|35=0|49=MFIXTradeID|56=MU0319300002|34=320|52=20211215-09:49:39.393432375|10=199|8=FIX.4.4|9=74|35=0|49=MFIXTradeID|56=MU0319300002|34=321|52=20211215-09:49:47.393058150|10=194|8=FIX.4.4|9=74|35=0|49=MFIXTradeID|56=MU0319300002|34=322|52=20211215-09:49:55.392820356|10=198|8=FIX.4.4|9=74|35=0|49=MFIXTradeID|56=MU0319300002|34=323|52=20211215-09:50:03.393752433|10=185|8=FIX.4.4|9=74|35=0|49=MFIXTradeID|56=MU0319300002|34=324|52=20211215-09:50:11.394406212|10=177|8=FIX.4.4|9=74|35=0|49=MFIXTradeID|56=MU0319300002|34=325|52=20211215-09:50:19.395392942|10=201|8=FIX.4.4|9=74|35=0|49=MFIXTradeID|56=MU0319300002|34=326|52=20211215-09:50:28.153186259|10=196|8=FIX.4.4|9=74|35=0|49=MFIXTradeID|56=MU0319300002|34=327|52=20211215-09:50:36.153780540|10=189|8=FIX.4.4|9=74|35=0|49=MFIXTradeID|56=MU0319300002|34=328|52=20211215-09:50:44.153427385|10=194|8=FIX.4.4|9=74|35=0|49=MFIXTradeID|56=MU0319300002|34=329|52=20211215-09:50:52.153996258|10=204|8=FIX.4.4|9=74|35=0|49=MFIXTradeID|56=MU0319300002|34=330|52=20211215-09:51:00.154947167|10=186|8=FIX.4.4|9=74|35=0|49=MFIXTradeID|56=MU0319300002|34=331|52=20211215-09:51:08.155453100|10=175|8=FIX.4.4|9=74|35=0|49=MFIXTradeID|56=MU0319300002|34=332|52=20211215-09:51:16.155508078|10=190|8=FIX.4.4|9=74|35=0|49=MFIXTradeID|56=MU0319300002|34=333|52=20211215-09:51:24.157262180|10=183|8=FIX.4.4|9=74|35=0|49=MFIXTradeID|56=MU0319300002|34=334|52=20211215-09:51:32.158288221|10=188|8=FIX.4.4|9=74|35=0|49=MFIXTradeID|56=MU0319300002|34=335|52=20211215-09:51:40.158930883|10=196|8=FIX.4.4|9=74|35=0|49=MFIXTradeID|56=MU0319300002|34=336|52=20211215-09:51:48.158768267|10=210|8=FIX.4.4|9=74|35=0|49=MFIXTradeID|56=MU0319300002|34=337|52=20211215-09:51:56.907199269|10=212|8=FIX.4.4|9=74|35=0|49=MFIXTradeID|56=MU0319300002|34=338|52=20211215-09:52:04.907962724|10=201|8=FIX.4.4|9=74|35=0|49=MFIXTradeID|56=MU0319300002|34=339|52=20211215-09:52:12.908603022|10=185|8=FIX.4.4|9=74|35=0|49=MFIXTradeID|56=MU0319300002|34=340|52=20211215-09:52:20.908341880|10=187|8=FIX.4.4|9=74|35=0|49=MFIXTradeID|56=MU0319300002|34=341|52=20211215-09:52:28.908393413|10=195|8=FIX.4.4|9=74|35=0|49=MFIXTradeID|56=MU0319300002|34=342|52=20211215-09:52:36.907964255|10=202|8=FIX.4.4|9=74|35=0|49=MFIXTradeID|56=MU0319300002|34=343|52=20211215-09:52:44.908637432|10=197|8=FIX.4.4|9=74|35=0|49=MFIXTradeID|56=MU0319300002|34=344|52=20211215-09:52:52.908337679|10=207|8=FIX.4.4|9=74|35=0|49=MFIXTradeID|56=MU0319300002|34=345|52=20211215-09:53:00.908236928|10=197|8=FIX.4.4|9=74|35=0|49=MFIXTradeID|56=MU0319300002|34=346|52=20211215-09:53:08.907997779|10=223|8=FIX.4.4|9=74|35=0|49=MFIXTradeID|56=MU0319300002|34=347|52=20211215-09:53:16.907817559|10=210|8=FIX.4.4|9=74|35=0|49=MFIXTradeID|56=MU0319300002|34=348|52=20211215-09:53:25.614926247|10=201|8=FIX.4.4|9=74|35=0|49=MFIXTradeID|56=MU0319300002|34=349|52=20211215-09:53:33.614780329|10=200|8=FIX.4.4|9=74|35=0|49=MFIXTradeID|56=MU0319300002|34=350|52=20211215-09:53:41.615522318|10=184|8=FIX.4.4|9=74|35=0|49=MFIXTradeID|56=MU0319300002|34=351|52=20211215-09:53:49.616712423|10=192|8=FIX.4.4|9=74|35=0|49=MFIXTradeID|56=MU0319300002|34=352|52=20211215-09:53:57.615892203|10=196|8=FIX.4.4|9=74|35=0|49=MFIXTradeID|56=MU0319300002|34=353|52=20211215-09:54:05.617569972|10=207|8=FIX.4.4|9=74|35=0|49=MFIXTradeID|56=MU0319300002|34=354|52=20211215-09:54:13.617278860|10=200|8=FIX.4.4|9=74|35=0|49=MFIXTradeID|56=MU0319300002|34=355|52=20211215-09:54:21.618214963|10=195|8=FIX.4.4|9=74|35=0|49=MFIXTradeID|56=MU0319300002|34=356|52=20211215-09:54:29.619238999|10=220|8=FIX.4.4|9=74|35=0|49=MFIXTradeID|56=MU0319300002|34=357|52=20211215-09:54:37.618914330|10=199|8=FIX.4.4|9=74|35=0|49=MFIXTradeID|56=MU0319300002|34=358|52=20211215-09:54:45.619471079|10=208|8=FIX.4.4|9=74|35=0|49=MFIXTradeID|56=MU0319300002|34=359|52=20211215-09:54:54.456168377|10=212|8=FIX.4.4|9=74|35=0|49=MFIXTradeID|56=MU0319300002|34=360|52=20211215-09:55:02.456920926|10=194|8=FIX.4.4|9=74|35=0|49=MFIXTradeID|56=MU0319300002|34=361|52=20211215-09:55:10.457928624|10=198|8=FIX.4.4|9=74|35=0|49=MFIXTradeID|56=MU0319300002|34=362|52=20211215-09:55:18.458667977|10=219|8=FIX.4.4|9=74|35=0|49=MFIXTradeID|56=MU0319300002|34=363|52=20211215-09:55:26.459219281|10=201|8=FIX.4.4|9=74|35=0|49=MFIXTradeID|56=MU0319300002|34=364|52=20211215-09:55:34.459110388|10=199|8=FIX.4.4|9=74|35=0|49=MFIXTradeID|56=MU0319300002|34=365|52=20211215-09:55:42.458888760|10=214|8=FIX.4.4|9=74|35=0|49=MFIXTradeID|56=MU0319300002|34=366|52=20211215-09:55:50.459456426|10=205|8=FIX.4.4|9=74|35=0|49=MFIXTradeID|56=MU0319300002|34=367|52=20211215-09:55:58.459271369|10=215|8=FIX.4.4|9=74|35=0|49=MFIXTradeID|56=MU0319300002|34=368|52=20211215-09:56:06.459890485|10=216|8=FIX.4.4|9=74|35=0|49=MFIXTradeID|56=MU0319300002|34=369|52=20211215-09:56:16.070670596|10=206|8=FIX.4.4|9=74|35=0|49=MFIXTradeID|56=MU0319300002|34=370|52=20211215-09:56:23.071480124|10=183|8=FIX.4.4|9=74|35=0|49=MFIXTradeID|56=MU0319300002|34=371|52=20211215-09:56:31.072507592|10=193|8=FIX.4.4|9=74|35=0|49=MFIXTradeID|56=MU0319300002|34=372|52=20211215-09:56:39.073290946|10=205|8=FIX.4.4|9=74|35=0|49=MFIXTradeID|56=MU0319300002|34=373|52=20211215-09:56:47.074091936|10=204|8=FIX.4.4|9=74|35=0|49=MFIXTradeID|56=MU0319300002|34=374|52=20211215-09:56:55.075051309|10=195|8=FIX.4.4|9=74|35=0|49=MFIXTradeID|56=MU0319300002|34=375|52=20211215-09:57:03.076622680|10=197|8=FIX.4.4|9=74|35=0|49=MFIXTradeID|56=MU0319300002|34=376|52=20211215-09:57:11.076611911|10=192|8=FIX.4.4|9=74|35=0|49=MFIXTradeID|56=MU0319300002|34=377|52=20211215-09:57:19.076300500|10=190|8=FIX.4.4|9=74|35=0|49=MFIXTradeID|56=MU0319300002|34=378|52=20211215-09:57:27.076752665|10=213|8=FIX.4.4|9=74|35=0|49=MFIXTradeID|56=MU0319300002|34=379|52=20211215-09:57:35.078586672|10=218|8=FIX.4.4|9=74|35=0|49=MFIXTradeID|56=MU0319300002|34=380|52=20211215-09:57:43.731712688|10=203|8=FIX.4.4|9=74|35=0|49=MFIXTradeID|56=MU0319300002|34=381|52=20211215-09:57:51.733361599|10=206|8=FIX.4.4|9=74|35=0|49=MFIXTradeID|56=MU0319300002|34=382|52=20211215-09:57:59.734571276|10=211|8=FIX.4.4|9=74|35=0|49=MFIXTradeID|56=MU0319300002|34=383|52=20211215-09:58:07.734066523|10=200|8=FIX.4.4|9=74|35=0|49=MFIXTradeID|56=MU0319300002|34=384|52=20211215-09:58:15.733768889|10=223|8=FIX.4.4|9=74|35=0|49=MFIXTradeID|56=MU0319300002|34=385|52=20211215-09:58:23.735421839|10=206|8=FIX.4.4|9=74|35=0|49=MFIXTradeID|56=MU0319300002|34=386|52=20211215-09:58:31.736131870|10=200|8=FIX.4.4|9=74|35=0|49=MFIXTradeID|56=MU0319300002|34=387|52=20211215-09:58:39.736845477|10=224|8=FIX.4.4|9=74|35=0|49=MFIXTradeID|56=MU0319300002|34=388|52=20211215-09:58:47.736467059|10=220|8=FIX.4.4|9=74|35=0|49=MFIXTradeID|56=MU0319300002|34=389|52=20211215-09:58:55.737274439|10=219|8=FIX.4.4|9=74|35=0|49=MFIXTradeID|56=MU0319300002|34=390|52=20211215-09:59:03.737430403|10=190|8=FIX.4.4|9=74|35=0|49=MFIXTradeID|56=MU0319300002|34=391|52=20211215-09:59:12.438920109|10=196|8=FIX.4.4|9=74|35=0|49=MFIXTradeID|56=MU0319300002|34=392|52=20211215-09:59:20.439481504|10=198|8=FIX.4.4|9=74|35=0|49=MFIXTradeID|56=MU0319300002|34=393|52=20211215-09:59:28.440055388|10=206|8=FIX.4.4|9=74|35=0|49=MFIXTradeID|56=MU0319300002|34=394|52=20211215-09:59:36.440138037|10=199|8=FIX.4.4|9=74|35=0|49=MFIXTradeID|56=MU0319300002|34=395|52=20211215-09:59:44.441890926|10=212|8=FIX.4.4|9=74|35=0|49=MFIXTradeID|56=MU0319300002|34=396|52=20211215-09:59:52.442722693|10=208|8=FIX.4.4|9=74|35=0|49=MFIXTradeID|56=MU0319300002|34=397|52=20211215-10:00:00.443089393|10=184|8=FIX.4.4|9=74|35=0|49=MFIXTradeID|56=MU0319300002|34=398|52=20211215-10:00:08.442838293|10=193|8=FIX.4.4|9=74|35=0|49=MFIXTradeID|56=MU0319300002|34=399|52=20211215-10:00:16.442718924|10=191|8=FIX.4.4|9=74|35=0|49=MFIXTradeID|56=MU0319300002|34=400|52=20211215-10:00:24.444488557|10=181|8=FIX.4.4|9=74|35=0|49=MFIXTradeID|56=MU0319300002|34=401|52=20211215-10:00:32.444274886|10=179|8=FIX.4.4|9=74|35=0|49=MFIXTradeID|56=MU0319300002|34=402|52=20211215-10:00:40.444965718|10=180|8=FIX.4.4|9=74|35=0|49=MFIXTradeID|56=MU0319300002|34=403|52=20211215-10:00:48.445461489|10=186|8=FIX.4.4|9=74|35=0|49=MFIXTradeID|56=MU0319300002|34=404|52=20211215-10:00:56.446176001|10=170|8=FIX.4.4|9=74|35=0|49=MFIXTradeID|56=MU0319300002|34=405|52=20211215-10:01:04.447124715|10=171|8=FIX.4.4|9=74|35=0|49=MFIXTradeID|56=MU0319300002|34=406|52=20211215-10:01:12.446786811|10=181|8=FIX.4.4|9=74|35=0|49=MFIXTradeID|56=MU0319300002|34=407|52=20211215-10:01:20.448649029|10=182|8=FIX.4.4|9=74|35=0|49=MFIXTradeID|56=MU0319300002|34=408|52=20211215-10:01:28.447762360|10=184|8=FIX.4.4|9=74|35=0|49=MFIXTradeID|56=MU0319300002|34=409|52=20211215-10:01:36.447676923|10=193|8=FIX.4.4|9=74|35=0|49=MFIXTradeID|56=MU0319300002|34=410|52=20211215-10:01:44.448674828|10=187|8=FIX.4.4|9=74|35=0|49=MFIXTradeID|56=MU0319300002|34=411|52=20211215-10:01:52.448361222|10=168|8=FIX.4.4|9=74|35=0|49=MFIXTradeID|56=MU0319300002|34=412|52=20211215-10:02:00.448360779|10=179|8=FIX.4.4|9=74|35=0|49=MFIXTradeID|56=MU0319300002|34=413|52=20211215-10:02:09.072812436|10=174|8=FIX.4.4|9=74|35=0|49=MFIXTradeID|56=MU0319300002|34=414|52=20211215-10:02:17.074541662|10=176|8=FIX.4.4|9=74|35=0|49=MFIXTradeID|56=MU0319300002|34=415|52=20211215-10:02:25.075355758|10=186|8=FIX.4.4|9=74|35=0|49=MFIXTradeID|56=MU0319300002|34=416|52=20211215-10:02:33.076049791|10=184|8=FIX.4.4|9=74|35=0|49=MFIXTradeID|56=MU0319300002|34=417|52=20211215-10:02:41.077600585|10=179|8=FIX.4.4|9=74|35=0|49=MFIXTradeID|56=MU0319300002|34=418|52=20211215-10:02:49.077169697|10=202|8=FIX.4.4|9=74|35=0|49=MFIXTradeID|56=MU0319300002|34=419|52=20211215-10:02:57.076885584|10=201|8=FIX.4.4|9=74|35=0|49=MFIXTradeID|56=MU0319300002|34=420|52=20211215-10:03:05.895595962|10=194|8=FIX.4.4|9=74|35=0|49=MFIXTradeID|56=MU0319300002|34=421|52=20211215-10:03:13.894992067|10=190|8=FIX.4.4|9=74|35=0|49=MFIXTradeID|56=MU0319300002|34=422|52=20211215-10:03:21.895727433|10=184|8=FIX.4.4|9=74|35=0|49=MFIXTradeID|56=MU0319300002|34=423|52=20211215-10:03:29.897305793|10=196|8=FIX.4.4|9=74|35=0|49=MFIXTradeID|56=MU0319300002|34=424|52=20211215-10:03:37.900992768|10=195|8=FIX.4.4|9=74|35=0|49=MFIXTradeID|56=MU0319300002|34=425|52=20211215-10:03:45.900737206|10=179|8=FIX.4.4|9=74|35=0|49=MFIXTradeID|56=MU0319300002|34=426|52=20211215-10:03:53.901330674|10=178|8=FIX.4.4|9=74|35=0|49=MFIXTradeID|56=MU0319300002|34=427|52=20211215-10:04:01.901301066|10=166|8=FIX.4.4|9=74|35=0|49=MFIXTradeID|56=MU0319300002|34=428|52=20211215-10:04:09.901058499|10=194|8=FIX.4.4|9=74|35=0|49=MFIXTradeID|56=MU0319300002|34=429|52=20211215-10:04:17.901448065|10=186|8=FIX.4.4|9=74|35=0|49=MFIXTradeID|56=MU0319300002|34=430|52=20211215-10:04:25.902181938|10=181|8=FIX.4.4|9=74|35=0|49=MFIXTradeID|56=MU0319300002|34=431|52=20211215-10:04:33.903816233|10=175|8=FIX.4.4|9=74|35=0|49=MFIXTradeID|56=MU0319300002|34=432|52=20211215-10:04:41.905299819|10=192|8=FIX.4.4|9=74|35=0|49=MFIXTradeID|56=MU0319300002|34=433|52=20211215-10:04:49.904920045|10=182|8=FIX.4.4|9=74|35=0|49=MFIXTradeID|56=MU0319300002|34=434|52=20211215-10:04:57.905447527|10=192|8=FIX.4.4|9=74|35=0|49=MFIXTradeID|56=MU0319300002|34=435|52=20211215-10:05:05.933663041|10=179|8=FIX.4.4|9=74|35=0|49=MFIXTradeID|56=MU0319300002|34=436|52=20211215-10:05:13.935157927|10=192|8=FIX.4.4|9=74|35=0|49=MFIXTradeID|56=MU0319300002|34=437|52=20211215-10:05:21.935078492|10=191|8=FIX.4.4|9=74|35=0|49=MFIXTradeID|56=MU0319300002|34=438|52=20211215-10:05:29.934978148|10=206|8=FIX.4.4|9=74|35=0|49=MFIXTradeID|56=MU0319300002|34=439|52=20211215-10:05:37.934755629|10=203|8=FIX.4.4|9=74|35=0|49=MFIXTradeID|56=MU0319300002|34=440|52=20211215-10:05:45.935281211|10=176|8=FIX.4.4|9=74|35=0|49=MFIXTradeID|56=MU0319300002|34=441|52=20211215-10:05:53.935869363|10=196|8=FIX.4.4|9=74|35=0|49=MFIXTradeID|56=MU0319300002|34=442|52=20211215-10:06:01.937100771|10=174|8=FIX.4.4|9=74|35=0|49=MFIXTradeID|56=MU0319300002|34=443|52=20211215-10:06:09.937758669|10=208|8=FIX.4.4|9=74|35=0|49=MFIXTradeID|56=MU0319300002|34=444|52=20211215-10:06:17.938514272|10=189|8=FIX.4.4|9=74|35=0|49=MFIXTradeID|56=MU0319300002|34=445|52=20211215-10:06:25.938412955|10=194|8=FIX.4.4|9=74|35=0|49=MFIXTradeID|56=MU0319300002|34=446|52=20211215-10:06:34.782172511|10=183|8=FIX.4.4|9=74|35=0|49=MFIXTradeID|56=MU0319300002|34=447|52=20211215-10:06:42.783727786|10=204|8=FIX.4.4|9=74|35=0|49=MFIXTradeID|56=MU0319300002|34=448|52=20211215-10:06:50.783209698|10=201|8=FIX.4.4|9=74|35=0|49=MFIXTradeID|56=MU0319300002|34=449|52=20211215-10:06:58.784855721|10=205|8=FIX.4.4|9=74|35=0|49=MFIXTradeID|56=MU0319300002|34=450|52=20211215-10:07:06.785127892|10=193|8=FIX.4.4|9=74|35=0|49=MFIXTradeID|56=MU0319300002|34=451|52=20211215-10:07:14.786025977|10=195|8=FIX.4.4|9=74|35=0|49=MFIXTradeID|56=MU0319300002|34=452|52=20211215-10:07:22.786552345|10=189|8=FIX.4.4|9=74|35=0|49=MFIXTradeID|56=MU0319300002|34=453|52=20211215-10:07:30.786268106|10=188|8=FIX.4.4|9=74|35=0|49=MFIXTradeID|56=MU0319300002|34=454|52=20211215-10:07:38.786009410|10=188|8=FIX.4.4|9=74|35=0|49=MFIXTradeID|56=MU0319300002|34=455|52=20211215-10:07:46.785795080|10=202|8=FIX.4.4|9=74|35=0|49=MFIXTradeID|56=MU0319300002|34=456|52=20211215-10:07:54.786363444|10=198|8=FIX.4.4|9=74|35=0|49=MFIXTradeID|56=MU0319300002|34=457|52=20211215-10:08:03.587330601|10=182|8=FIX.4.4|9=74|35=0|49=MFIXTradeID|56=MU0319300002|34=458|52=20211215-10:08:11.587954292|10=200|8=FIX.4.4|9=74|35=0|49=MFIXTradeID|56=MU0319300002|34=459|52=20211215-10:08:19.588722685|10=209|8=FIX.4.4|9=74|35=0|49=MFIXTradeID|56=MU0319300002|34=460|52=20211215-10:08:27.590484571|10=192|8=FIX.4.4|9=74|35=0|49=MFIXTradeID|56=MU0319300002|34=461|52=20211215-10:08:35.591460689|10=197|8=FIX.4.4|9=74|35=0|49=MFIXTradeID|56=MU0319300002|34=462|52=20211215-10:08:43.591006399|10=191|8=FIX.4.4|9=74|35=0|49=MFIXTradeID|56=MU0319300002|34=463|52=20211215-10:08:51.590907806|10=193|8=FIX.4.4|9=74|35=0|49=MFIXTradeID|56=MU0319300002|34=464|52=20211215-10:08:59.592699850|10=211|8=FIX.4.4|9=74|35=0|49=MFIXTradeID|56=MU0319300002|34=465|52=20211215-10:09:07.593662502|10=191|8=FIX.4.4|9=74|35=0|49=MFIXTradeID|56=MU0319300002|34=466|52=20211215-10:09:15.594322740|10=189|8=FIX.4.4|9=74|35=0|49=MFIXTradeID|56=MU0319300002|34=467|52=20211215-10:09:23.593902536|10=195|8=FIX.4.4|9=74|35=0|49=MFIXTradeID|56=MU0319300002|34=468|52=20211215-10:09:32.358000150|10=176|8=FIX.4.4|9=74|35=0|49=MFIXTradeID|56=MU0319300002|34=469|52=20211215-10:09:40.359159800|10=194|8=FIX.4.4|9=74|35=0|49=MFIXTradeID|56=MU0319300002|34=470|52=20211215-10:09:48.358888392|10=208|8=FIX.4.4|9=74|35=0|49=MFIXTradeID|56=MU0319300002|34=471|52=20211215-10:09:56.359644086|10=199|8=FIX.4.4|9=74|35=0|49=MFIXTradeID|56=MU0319300002|34=472|52=20211215-10:10:04.359433465|10=182|8=FIX.4.4|9=74|35=0|49=MFIXTradeID|56=MU0319300002|34=473|52=20211215-10:10:12.359954192|10=187|8=FIX.4.4|9=74|35=0|49=MFIXTradeID|56=MU0319300002|34=474|52=20211215-10:10:20.360445115|10=169|8=FIX.4.4|9=74|35=0|49=MFIXTradeID|56=MU0319300002|34=475|52=20211215-10:10:28.360294930|10=185|8=FIX.4.4|9=74|35=0|49=MFIXTradeID|56=MU0319300002|34=476|52=20211215-10:10:36.360442912|10=180|8=FIX.4.4|9=74|35=0|49=MFIXTradeID|56=MU0319300002|34=477|52=20211215-10:10:44.360024683|10=181|8=FIX.4.4|9=74|35=0|49=MFIXTradeID|56=MU0319300002|34=478|52=20211215-10:10:54.036636084|10=187|8=FIX.4.4|9=74|35=0|49=MFIXTradeID|56=MU0319300002|34=479|52=20211215-10:11:01.037136646|10=181|8=FIX.4.4|9=74|35=0|49=MFIXTradeID|56=MU0319300002|34=480|52=20211215-10:11:09.037968548|10=195|8=FIX.4.4|9=74|35=0|49=MFIXTradeID|56=MU0319300002|34=481|52=20211215-10:11:17.039473660|10=183|8=FIX.4.4|9=74|35=0|49=MFIXTradeID|56=MU0319300002|34=482|52=20211215-10:11:25.040036663|10=173|8=FIX.4.4|9=74|35=0|49=MFIXTradeID|56=MU0319300002|34=483|52=20211215-10:11:33.041335830|10=172|8=FIX.4.4|9=74|35=0|49=MFIXTradeID|56=MU0319300002|34=484|52=20211215-10:11:41.041025180|10=166|8=FIX.4.4|9=74|35=0|49=MFIXTradeID|56=MU0319300002|34=485|52=20211215-10:11:49.041356774|10=191|8=FIX.4.4|9=74|35=0|49=MFIXTradeID|56=MU0319300002|34=486|52=20211215-10:11:57.040965688|10=200|8=FIX.4.4|9=74|35=0|49=MFIXTradeID|56=MU0319300002|34=487|52=20211215-10:12:05.040954643|10=184|8=FIX.4.4|9=74|35=0|49=MFIXTradeID|56=MU0319300002|34=488|52=20211215-10:12:13.041845164|10=182|8=FIX.4.4|9=74|35=0|49=MFIXTradeID|56=MU0319300002|34=489|52=20211215-10:12:21.930516371|10=184|8=FIX.4.4|9=74|35=0|49=MFIXTradeID|56=MU0319300002|34=490|52=20211215-10:12:29.931035593|10=187|8=FIX.4.4|9=74|35=0|49=MFIXTradeID|56=MU0319300002|34=491|52=20211215-10:12:38.472996540|10=196|8=FIX.4.4|9=74|35=0|49=MFIXTradeID|56=MU0319300002|34=492|52=20211215-10:12:46.473756225|10=191|8=FIX.4.4|9=74|35=0|49=MFIXTradeID|56=MU0319300002|34=493|52=20211215-10:12:54.474274872|10=195|8=FIX.4.4|9=74|35=0|49=MFIXTradeID|56=MU0319300002|34=494|52=20211215-10:13:02.474881365|10=191|8=FIX.4.4|9=74|35=0|49=MFIXTradeID|56=MU0319300002|34=495|52=20211215-10:13:10.475050406|10=176|8=FIX.4.4|9=74|35=0|49=MFIXTradeID|56=MU0319300002|34=496|52=20211215-10:13:18.475381144|10=191|8=FIX.4.4|9=74|35=0|49=MFIXTradeID|56=MU0319300002|34=497|52=20211215-10:13:26.475089610|10=194|8=FIX.4.4|9=74|35=0|49=MFIXTradeID|56=MU0319300002|34=498|52=20211215-10:13:34.475654623|10=196|8=FIX.4.4|9=74|35=0|49=MFIXTradeID|56=MU0319300002|34=499|52=20211215-10:13:42.476239104|10=190|8=FIX.4.4|9=74|35=0|49=MFIXTradeID|56=MU0319300002|34=500|52=20211215-10:13:50.758196070|10=179|8=FIX.4.4|9=74|35=0|49=MFIXTradeID|56=MU0319300002|34=501|52=20211215-10:13:58.757715339|10=192|8=FIX.4.4|9=74|35=0|49=MFIXTradeID|56=MU0319300002|34=502|52=20211215-10:14:06.757782751|10=189|8=FIX.4.4|9=74|35=0|49=MFIXTradeID|56=MU0319300002|34=503|52=20211215-10:14:14.759340640|10=178|8=FIX.4.4|9=74|35=0|49=MFIXTradeID|56=MU0319300002|34=504|52=20211215-10:14:22.759919665|10=197|8=FIX.4.4|9=74|35=0|49=MFIXTradeID|56=MU0319300002|34=505|52=20211215-10:14:30.760497396|10=191|8=FIX.4.4|9=74|35=0|49=MFIXTradeID|56=MU0319300002|34=506|52=20211215-10:14:38.761207165|10=184|8=FIX.4.4|9=74|35=0|49=MFIXTradeID|56=MU0319300002|34=507|52=20211215-10:14:46.762001548|10=182|8=FIX.4.4|9=74|35=0|49=MFIXTradeID|56=MU0319300002|34=508|52=20211215-10:14:54.762447595|10=198|8=FIX.4.4|9=74|35=0|49=MFIXTradeID|56=MU0319300002|34=509|52=20211215-10:15:02.763309775|10=191|8=FIX.4.4|9=74|35=0|49=MFIXTradeID|56=MU0319300002|34=510|52=20211215-10:15:10.765619917|10=186|8=FIX.4.4|9=74|35=0|49=MFIXTradeID|56=MU0319300002|34=511|52=20211215-10:15:18.765092413|10=181|8=FIX.4.4|9=74|35=0|49=MFIXTradeID|56=MU0319300002|34=512|52=20211215-10:15:26.765998756|10=206|8=FIX.4.4|9=74|35=0|49=MFIXTradeID|56=MU0319300002|34=513|52=20211215-10:15:34.766647030|10=183|8=FIX.4.4|9=74|35=0|49=MFIXTradeID|56=MU0319300002|34=514|52=20211215-10:15:42.767441446|10=187|8=FIX.4.4|9=74|35=0|49=MFIXTradeID|56=MU0319300002|34=515|52=20211215-10:15:50.767043368|10=188|8=FIX.4.4|9=74|35=0|49=MFIXTradeID|56=MU0319300002|34=516|52=20211215-10:15:58.768508235|10=197|8=FIX.4.4|9=74|35=0|49=MFIXTradeID|56=MU0319300002|34=517|52=20211215-10:16:06.769389688|10=212|8=FIX.4.4|9=74|35=0|49=MFIXTradeID|56=MU0319300002|34=518|52=20211215-10:16:14.771103381|10=179|8=FIX.4.4|9=74|35=0|49=MFIXTradeID|56=MU0319300002|34=519|52=20211215-10:16:22.770803191|10=184|8=FIX.4.4|9=74|35=0|49=MFIXTradeID|56=MU0319300002|34=520|52=20211215-10:16:30.771476724|10=184|8=FIX.4.4|9=74|35=0|49=MFIXTradeID|56=MU0319300002|34=521|52=20211215-10:16:38.771414446|10=186|8=FIX.4.4|9=74|35=0|49=MFIXTradeID|56=MU0319300002|34=522|52=20211215-10:16:47.460693403|10=184|8=FIX.4.4|9=74|35=0|49=MFIXTradeID|56=MU0319300002|34=523|52=20211215-10:16:55.457222107|10=179|8=FIX.4.4|9=74|35=0|49=MFIXTradeID|56=MU0319300002|34=524|52=20211215-10:17:03.457850956|10=193|8=FIX.4.4|9=74|35=0|49=MFIXTradeID|56=MU0319300002|34=525|52=20211215-10:17:11.459051296|10=185|8=FIX.4.4|9=74|35=0|49=MFIXTradeID|56=MU0319300002|34=526|52=20211215-10:17:19.459784772|10=206|8=FIX.4.4|9=74|35=0|49=MFIXTradeID|56=MU0319300002|34=527|52=20211215-10:17:27.460519905|10=192|8=FIX.4.4|9=74|35=0|49=MFIXTradeID|56=MU0319300002|34=528|52=20211215-10:17:35.461327403|10=183|8=FIX.4.4|9=74|35=0|49=MFIXTradeID|56=MU0319300002|34=529|52=20211215-10:17:43.461388994|10=205|8=FIX.4.4|9=74|35=0|49=MFIXTradeID|56=MU0319300002|34=530|52=20211215-10:17:51.461904644|10=182|8=FIX.4.4|9=74|35=0|49=MFIXTradeID|56=MU0319300002|34=531|52=20211215-10:17:59.462481522|10=187|8=FIX.4.4|9=74|35=0|49=MFIXTradeID|56=MU0319300002|34=532|52=20211215-10:18:07.463518243|10=184|8=FIX.4.4|9=74|35=0|49=MFIXTradeID|56=MU0319300002|34=533|52=20211215-10:18:16.181197557|10=193|8=FIX.4.4|9=74|35=0|49=MFIXTradeID|56=MU0319300002|34=534|52=20211215-10:18:24.180846750|10=188|8=FIX.4.4|9=74|35=0|49=MFIXTradeID|56=MU0319300002|34=535|52=20211215-10:18:32.181606600|10=177|8=FIX.4.4|9=74|35=0|49=MFIXTradeID|56=MU0319300002|34=536|52=20211215-10:18:40.181570277|10=187|8=FIX.4.4|9=74|35=0|49=MFIXTradeID|56=MU0319300002|34=537|52=20211215-10:18:48.181274321|10=187|8=FIX.4.4|9=74|35=0|49=MFIXTradeID|56=MU0319300002|34=538|52=20211215-10:18:56.181917138|10=197|8=FIX.4.4|9=74|35=0|49=MFIXTradeID|56=MU0319300002|34=539|52=20211215-10:19:04.183530762|10=188|8=FIX.4.4|9=74|35=0|49=MFIXTradeID|56=MU0319300002|34=540|52=20211215-10:19:12.183413404|10=172|8=FIX.4.4|9=74|35=0|49=MFIXTradeID|56=MU0319300002|34=541|52=20211215-10:19:20.183856637|10=191|8=FIX.4.4|9=74|35=0|49=MFIXTradeID|56=MU0319300002|34=542|52=20211215-10:19:28.184819522|10=193|8=FIX.4.4|9=74|35=0|49=MFIXTradeID|56=MU0319300002|34=543|52=20211215-10:19:36.185510155|10=184|8=FIX.4.4|9=74|35=0|49=MFIXTradeID|56=MU0319300002|34=544|52=20211215-10:19:45.056679204|10=193|8=FIX.4.4|9=74|35=0|49=MFIXTradeID|56=MU0319300002|34=545|52=20211215-10:19:53.057222957|10=193|8=FIX.4.4|9=74|35=0|49=MFIXTradeID|56=MU0319300002|34=546|52=20211215-10:20:01.056851987|10=189|8=FIX.4.4|9=74|35=0|49=MFIXTradeID|56=MU0319300002|34=547|52=20211215-10:20:09.057022198|10=183|8=FIX.4.4|9=74|35=0|49=MFIXTradeID|56=MU0319300002|34=548|52=20211215-10:20:17.058288544|10=193|8=FIX.4.4|9=74|35=0|49=MFIXTradeID|56=MU0319300002|34=549|52=20211215-10:20:25.058093803|10=185|8=FIX.4.4|9=74|35=0|49=MFIXTradeID|56=MU0319300002|34=550|52=20211215-10:20:33.058647514|10=180|8=FIX.4.4|9=74|35=0|49=MFIXTradeID|56=MU0319300002|34=551|52=20211215-10:20:41.058591726|10=183|8=FIX.4.4|9=74|35=0|49=MFIXTradeID|56=MU0319300002|34=552|52=20211215-10:20:49.057994424|10=193|8=FIX.4.4|9=74|35=0|49=MFIXTradeID|56=MU0319300002|34=553|52=20211215-10:20:57.059508989|10=202|8=FIX.4.4|9=74|35=0|49=MFIXTradeID|56=MU0319300002|34=554|52=20211215-10:21:05.061151171|10=167|8=FIX.4.4|9=74|35=0|49=MFIXTradeID|56=MU0319300002|34=555|52=20211215-10:21:13.061131270|10=165|8=FIX.4.4|9=74|35=0|49=MFIXTradeID|56=MU0319300002|34=556|52=20211215-10:21:21.061870240|10=172|8=FIX.4.4|9=74|35=0|49=MFIXTradeID|56=MU0319300002|34=557|52=20211215-10:21:29.061696479|10=201|8=FIX.4.4|9=74|35=0|49=MFIXTradeID|56=MU0319300002|34=558|52=20211215-10:21:37.063383719|10=193|8=FIX.4.4|9=74|35=0|49=MFIXTradeID|56=MU0319300002|34=559|52=20211215-10:21:45.064469111|10=185|8=FIX.4.4|9=74|35=0|49=MFIXTradeID|56=MU0319300002|34=560|52=20211215-10:21:53.063917791|10=187|8=FIX.4.4|9=74|35=0|49=MFIXTradeID|56=MU0319300002|34=561|52=20211215-10:22:01.064444646|10=177|8=FIX.4.4|9=74|35=0|49=MFIXTradeID|56=MU0319300002|34=562|52=20211215-10:22:09.064350123|10=172|8=FIX.4.4|9=74|35=0|49=MFIXTradeID|56=MU0319300002|34=563|52=20211215-10:22:17.064082914|10=182|8=FIX.4.4|9=74|35=0|49=MFIXTradeID|56=MU0319300002|34=564|52=20211215-10:22:25.064909331|10=183|8=FIX.4.4|9=74|35=0|49=MFIXTradeID|56=MU0319300002|34=565|52=20211215-10:22:33.065507781|10=187|8=FIX.4.4|9=74|35=0|49=MFIXTradeID|56=MU0319300002|34=566|52=20211215-10:22:41.595580522|10=189|8=FIX.4.4|9=74|35=0|49=MFIXTradeID|56=MU0319300002|34=567|52=20211215-10:22:49.595050055|10=191|8=FIX.4.4|9=74|35=0|49=MFIXTradeID|56=MU0319300002|34=568|52=20211215-10:22:57.595574861|10=207|8=FIX.4.4|9=74|35=0|49=MFIXTradeID|56=MU0319300002|34=569|52=20211215-10:23:05.595631958|10=203|8=FIX.4.4|9=74|35=0|49=MFIXTradeID|56=MU0319300002|34=570|52=20211215-10:23:13.595010637|10=179|8=FIX.4.4|9=74|35=0|49=MFIXTradeID|56=MU0319300002|34=571|52=20211215-10:23:21.594689911|10=195|8=FIX.4.4|9=74|35=0|49=MFIXTradeID|56=MU0319300002|34=572|52=20211215-10:23:29.595471267|10=198|8=FIX.4.4|9=74|35=0|49=MFIXTradeID|56=MU0319300002|34=573|52=20211215-10:23:37.596082806|10=196|8=FIX.4.4|9=74|35=0|49=MFIXTradeID|56=MU0319300002|34=574|52=20211215-10:23:45.596835573|10=203|8=FIX.4.4|9=74|35=0|49=MFIXTradeID|56=MU0319300002|34=575|52=20211215-10:23:53.597366016|10=195|8=FIX.4.4|9=74|35=0|49=MFIXTradeID|56=MU0319300002|34=576|52=20211215-10:24:01.597137441|10=188|8=FIX.4.4|9=74|35=0|49=MFIXTradeID|56=MU0319300002|34=577|52=20211215-10:24:10.383306976|10=193|8=FIX.4.4|9=74|35=0|49=MFIXTradeID|56=MU0319300002|34=578|52=20211215-10:24:18.383782375|10=203|8=FIX.4.4|9=74|35=0|49=MFIXTradeID|56=MU0319300002|34=579|52=20211215-10:24:26.384355080|10=193|8=FIX.4.4|9=74|35=0|49=MFIXTradeID|56=MU0319300002|34=580|52=20211215-10:24:34.384222081|10=178|8=FIX.4.4|9=74|35=0|49=MFIXTradeID|56=MU0319300002|34=581|52=20211215-10:24:42.384643875|10=196|8=FIX.4.4|9=74|35=0|49=MFIXTradeID|56=MU0319300002|34=582|52=20211215-10:24:50.385337810|10=186|8=FIX.4.4|9=74|35=0|49=MFIXTradeID|56=MU0319300002|34=583|52=20211215-10:24:58.386223101|10=183|8=FIX.4.4|9=74|35=0|49=MFIXTradeID|56=MU0319300002|34=584|52=20211215-10:25:06.386167461|10=194|8=FIX.4.4|9=74|35=0|49=MFIXTradeID|56=MU0319300002|34=585|52=20211215-10:25:14.386227758|10=200|8=FIX.4.4|9=74|35=0|49=MFIXTradeID|56=MU0319300002|34=586|52=20211215-10:25:22.387046635|10=194|8=FIX.4.4|9=74|35=0|49=MFIXTradeID|56=MU0319300002|34=587|52=20211215-10:25:32.077503232|10=183|8=FIX.4.4|9=74|35=0|49=MFIXTradeID|56=MU0319300002|34=588|52=20211215-10:25:39.078000570|10=189|8=FIX.4.4|9=74|35=0|49=MFIXTradeID|56=MU0319300002|34=589|52=20211215-10:25:47.078800488|10=205|8=FIX.4.4|9=74|35=0|49=MFIXTradeID|56=MU0319300002|34=590|52=20211215-10:25:55.079373013|10=186|8=FIX.4.4|9=74|35=0|49=MFIXTradeID|56=MU0319300002|34=591|52=20211215-10:26:03.079939964|10=204|8=FIX.4.4|9=74|35=0|49=MFIXTradeID|56=MU0319300002|34=592|52=20211215-10:26:11.081037876|10=188|8=FIX.4.4|9=74|35=0|49=MFIXTradeID|56=MU0319300002|34=593|52=20211215-10:26:19.082540659|10=196|8=FIX.4.4|9=74|35=0|49=MFIXTradeID|56=MU0319300002|34=594|52=20211215-10:26:27.082265847|10=199|8=FIX.4.4|9=74|35=0|49=MFIXTradeID|56=MU0319300002|34=595|52=20211215-10:26:35.081962726|10=198|8=FIX.4.4|9=74|35=0|49=MFIXTradeID|56=MU0319300002|34=596|52=20211215-10:26:43.083176068|10=196|8=FIX.4.4|9=74|35=0|49=MFIXTradeID|56=MU0319300002|34=597|52=20211215-10:26:51.083739466|10=203|8=FIX.4.4|9=74|35=0|49=MFIXTradeID|56=MU0319300002|34=598|52=20211215-10:26:59.970858272|10=214|8=FIX.4.4|9=74|35=0|49=MFIXTradeID|56=MU0319300002|34=599|52=20211215-10:27:07.971367203|10=199|8=FIX.4.4|9=74|35=0|49=MFIXTradeID|56=MU0319300002|34=600|52=20211215-10:27:15.971427329|10=187|8=FIX.4.4|9=74|35=0|49=MFIXTradeID|56=MU0319300002|34=601|52=20211215-10:27:23.971265800|10=181|8=FIX.4.4|9=74|35=0|49=MFIXTradeID|56=MU0319300002|34=602|52=20211215-10:27:31.972936181|10=189|8=FIX.4.4|9=74|35=0|49=MFIXTradeID|56=MU0319300002|34=603|52=20211215-10:27:39.974635078|10=201|8=FIX.4.4|9=74|35=0|49=MFIXTradeID|56=MU0319300002|34=604|52=20211215-10:27:47.974351450|10=190|8=FIX.4.4|9=74|35=0|49=MFIXTradeID|56=MU0319300002|34=605|52=20211215-10:27:55.975012196|10=192|8=FIX.4.4|9=74|35=0|49=MFIXTradeID|56=MU0319300002|34=606|52=20211215-10:28:03.975546862|10=199|8=FIX.4.4|9=74|35=0|49=MFIXTradeID|56=MU0319300002|34=607|52=20211215-10:28:11.975592373|10=197|8=FIX.4.4|9=74|35=0|49=MFIXTradeID|56=MU0319300002|34=608|52=20211215-10:28:19.976171164|10=198|8=FIX.4.4|9=74|35=0|49=MFIXTradeID|56=MU0319300002|34=609|52=20211215-10:28:28.691912595|10=204|8=FIX.4.4|9=74|35=0|49=MFIXTradeID|56=MU0319300002|34=610|52=20211215-10:28:36.692583042|10=187|8=FIX.4.4|9=74|35=0|49=MFIXTradeID|56=MU0319300002|34=611|52=20211215-10:28:44.693581675|10=198|8=FIX.4.4|9=74|35=0|49=MFIXTradeID|56=MU0319300002|34=612|52=20211215-10:28:52.693412975|10=194|8=FIX.4.4|9=74|35=0|49=MFIXTradeID|56=MU0319300002|34=613|52=20211215-10:29:00.692959720|10=192|8=FIX.4.4|9=74|35=0|49=MFIXTradeID|56=MU0319300002|34=614|52=20211215-10:29:08.693649034|10=196|8=FIX.4.4|9=74|35=0|49=MFIXTradeID|56=MU0319300002|34=615|52=20211215-10:29:16.693742812|10=194|8=FIX.4.4|9=74|35=0|49=MFIXTradeID|56=MU0319300002|34=616|52=20211215-10:29:24.694366935|10=203|8=FIX.4.4|9=74|35=0|49=MFIXTradeID|56=MU0319300002|34=617|52=20211215-10:29:32.693943519|10=201|8=FIX.4.4|9=74|35=0|49=MFIXTradeID|56=MU0319300002|34=618|52=20211215-10:29:40.694604164|10=192|8=FIX.4.4|9=74|35=0|49=MFIXTradeID|56=MU0319300002|34=619|52=20211215-10:29:48.694277866|10=216|8=FIX.4.4|9=74|35=0|49=MFIXTradeID|56=MU0319300002|34=620|52=20211215-10:29:57.526784585|10=203|8=FIX.4.4|9=74|35=0|49=MFIXTradeID|56=MU0319300002|34=621|52=20211215-10:30:05.527487551|10=183|8=FIX.4.4|9=74|35=0|49=MFIXTradeID|56=MU0319300002|34=622|52=20211215-10:30:13.527824079|10=183|8=FIX.4.4|9=74|35=0|49=MFIXTradeID|56=MU0319300002|34=623|52=20211215-10:30:21.528491745|10=184|8=FIX.4.4|9=74|35=0|49=MFIXTradeID|56=MU0319300002|34=624|52=20211215-10:30:29.530170321|10=170|8=FIX.4.4|9=74|35=0|49=MFIXTradeID|56=MU0319300002|34=625|52=20211215-10:30:37.529798498|10=209|8=FIX.4.4|9=74|35=0|49=MFIXTradeID|56=MU0319300002|34=626|52=20211215-10:30:45.529882770|10=196|8=FIX.4.4|9=74|35=0|49=MFIXTradeID|56=MU0319300002|34=627|52=20211215-10:30:53.530762285|10=186|8=FIX.4.4|9=74|35=0|49=MFIXTradeID|56=MU0319300002|34=628|52=20211215-10:31:01.530658997|10=195|8=FIX.4.4|9=74|35=0|49=MFIXTradeID|56=MU0319300002|34=629|52=20211215-10:31:09.531448677|10=197|8=FIX.4.4|9=74|35=0|49=MFIXTradeID|56=MU0319300002|34=630|52=20211215-10:31:17.532723788|10=188|8=FIX.4.4|9=74|35=0|49=MFIXTradeID|56=MU0319300002|34=631|52=20211215-10:31:26.284716216|10=181|8=FIX.4.4|9=74|35=0|49=MFIXTradeID|56=MU0319300002|34=632|52=20211215-10:31:34.285422080|10=175|8=FIX.4.4|9=74|35=0|49=MFIXTradeID|56=MU0319300002|34=633|52=20211215-10:31:42.285196448|10=191|8=FIX.4.4|9=74|35=0|49=MFIXTradeID|56=MU0319300002|34=634|52=20211215-10:31:50.285965309|10=191|8=FIX.4.4|9=74|35=0|49=MFIXTradeID|56=MU0319300002|34=635|52=20211215-10:31:58.287348435|10=197|8=FIX.4.4|9=74|35=0|49=MFIXTradeID|56=MU0319300002|34=636|52=20211215-10:32:06.286761570|10=190|8=FIX.4.4|9=74|35=0|49=MFIXTradeID|56=MU0319300002|34=637|52=20211215-10:32:14.287671515|10=190|8=FIX.4.4|9=74|35=0|49=MFIXTradeID|56=MU0319300002|34=638|52=20211215-10:32:22.288422628|10=190|8=FIX.4.4|9=74|35=0|49=MFIXTradeID|56=MU0319300002|34=639|52=20211215-10:32:30.288283847|10=198|8=FIX.4.4|9=74|35=0|49=MFIXTradeID|56=MU0319300002|34=640|52=20211215-10:32:38.288162999|10=202|8=FIX.4.4|9=74|35=0|49=MFIXTradeID|56=MU0319300002|34=641|52=20211215-10:32:46.288023068|10=185|8=FIX.4.4|9=74|35=0|49=MFIXTradeID|56=MU0319300002|34=642|52=20211215-10:32:55.061472682|10=185|8=FIX.4.4|9=74|35=0|49=MFIXTradeID|56=MU0319300002|34=643|52=20211215-10:33:03.060930046|10=172|8=FIX.4.4|9=74|35=0|49=MFIXTradeID|56=MU0319300002|34=644|52=20211215-10:33:11.062596952|10=188|8=FIX.4.4|9=74|35=0|49=MFIXTradeID|56=MU0319300002|34=645|52=20211215-10:33:19.061743370|10=184|8=FIX.4.4|9=74|35=0|49=MFIXTradeID|56=MU0319300002|34=646|52=20211215-10:33:27.063334706|10=185|8=FIX.4.4|9=74|35=0|49=MFIXTradeID|56=MU0319300002|34=647|52=20211215-10:33:35.064588017|10=192|8=FIX.4.4|9=74|35=0|49=MFIXTradeID|56=MU0319300002|34=648|52=20211215-10:33:43.064390107|10=183|8=FIX.4.4|9=74|35=0|49=MFIXTradeID|56=MU0319300002|34=649|52=20211215-10:33:51.065249701|10=187|8=FIX.4.4|9=74|35=0|49=MFIXTradeID|56=MU0319300002|34=650|52=20211215-10:33:59.065800447|10=187|8=FIX.4.4|9=74|35=0|49=MFIXTradeID|56=MU0319300002|34=651|52=20211215-10:34:07.066573615|10=187|8=FIX.4.4|9=74|35=0|49=MFIXTradeID|56=MU0319300002|34=652|52=20211215-10:34:15.066495875|10=198|8=FIX.4.4|9=74|35=0|49=MFIXTradeID|56=MU0319300002|34=653|52=20211215-10:34:23.873434939|10=198|8=FIX.4.4|9=74|35=0|49=MFIXTradeID|56=MU0319300002|34=654|52=20211215-10:34:31.873400538|10=186|8=FIX.4.4|9=74|35=0|49=MFIXTradeID|56=MU0319300002|34=655|52=20211215-10:34:39.874169044|10=200|8=FIX.4.4|9=74|35=0|49=MFIXTradeID|56=MU0319300002|34=656|52=20211215-10:34:47.874055926|10=203|8=FIX.4.4|9=74|35=0|49=MFIXTradeID|56=MU0319300002|34=657|52=20211215-10:34:55.874808528|10=207|8=FIX.4.4|9=74|35=0|49=MFIXTradeID|56=MU0319300002|34=658|52=20211215-10:35:03.875172617|10=196|8=FIX.4.4|9=74|35=0|49=MFIXTradeID|56=MU0319300002|34=659|52=20211215-10:35:11.876932058|10=200|8=FIX.4.4|9=74|35=0|49=MFIXTradeID|56=MU0319300002|34=660|52=20211215-10:35:19.876785061|10=200|8=FIX.4.4|9=74|35=0|49=MFIXTradeID|56=MU0319300002|34=661|52=20211215-10:35:27.877463275|10=201|8=FIX.4.4|9=74|35=0|49=MFIXTradeID|56=MU0319300002|34=662|52=20211215-10:35:35.878016826|10=198|8=FIX.4.4|9=74|35=0|49=MFIXTradeID|56=MU0319300002|34=663|52=20211215-10:35:43.878660243|10=196|8=FIX.4.4|9=74|35=0|49=MFIXTradeID|56=MU0319300002|34=664|52=20211215-10:35:52.631917577|10=199|8=FIX.4.4|9=74|35=0|49=MFIXTradeID|56=MU0319300002|34=665|52=20211215-10:36:00.632793825|10=193|8=FIX.4.4|9=74|35=0|49=MFIXTradeID|56=MU0319300002|34=666|52=20211215-10:36:08.633622184|10=192|8=FIX.4.4|9=74|35=0|49=MFIXTradeID|56=MU0319300002|34=667|52=20211215-10:36:16.633638382|10=199|8=FIX.4.4|9=74|35=0|49=MFIXTradeID|56=MU0319300002|34=668|52=20211215-10:36:24.634203187|10=191|8=FIX.4.4|9=74|35=0|49=MFIXTradeID|56=MU0319300002|34=669|52=20211215-10:36:32.634670134|10=191|8=FIX.4.4|9=74|35=0|49=MFIXTradeID|56=MU0319300002|34=670|52=20211215-10:36:40.635391526|10=188|8=FIX.4.4|9=74|35=0|49=MFIXTradeID|56=MU0319300002|34=671|52=20211215-10:36:48.635323426|10=191|8=FIX.4.4|9=74|35=0|49=MFIXTradeID|56=MU0319300002|34=672|52=20211215-10:36:56.635884831|10=203|8=FIX.4.4|9=74|35=0|49=MFIXTradeID|56=MU0319300002|34=673|52=20211215-10:37:04.636536350|10=189|8=FIX.4.4|9=74|35=0|49=MFIXTradeID|56=MU0319300002|34=674|52=20211215-10:37:14.406251565|10=188|8=FIX.4.4|9=74|35=0|49=MFIXTradeID|56=MU0319300002|34=675|52=20211215-10:37:21.406012815|10=180|8=FIX.4.4|9=74|35=0|49=MFIXTradeID|56=MU0319300002|34=676|52=20211215-10:37:29.407428849|10=208|8=FIX.4.4|9=74|35=0|49=MFIXTradeID|56=MU0319300002|34=677|52=20211215-10:37:37.407111763|10=192|8=FIX.4.4|9=74|35=0|49=MFIXTradeID|56=MU0319300002|34=678|52=20211215-10:37:45.407746044|10=198|8=FIX.4.4|9=74|35=0|49=MFIXTradeID|56=MU0319300002|34=679|52=20211215-10:37:53.407327287|10=202|8=FIX.4.4|9=74|35=0|49=MFIXTradeID|56=MU0319300002|34=680|52=20211215-10:38:01.408915176|10=189|8=FIX.4.4|9=74|35=0|49=MFIXTradeID|56=MU0319300002|34=681|52=20211215-10:38:09.409380447|10=196|8=FIX.4.4|9=74|35=0|49=MFIXTradeID|56=MU0319300002|34=682|52=20211215-10:38:17.408836930|10=198|8=FIX.4.4|9=74|35=0|49=MFIXTradeID|56=MU0319300002|34=683|52=20211215-10:38:25.409306769|10=201|8=FIX.4.4|9=74|35=0|49=MFIXTradeID|56=MU0319300002|34=684|52=20211215-10:38:33.408772815|10=199|8=FIX.4.4|9=74|35=0|49=MFIXTradeID|56=MU0319300002|34=685|52=20211215-10:38:42.203240276|10=184|8=FIX.4.4|9=74|35=0|49=MFIXTradeID|56=MU0319300002|34=686|52=20211215-10:38:50.203176841|10=190|8=FIX.4.4|9=74|35=0|49=MFIXTradeID|56=MU0319300002|34=687|52=20211215-10:38:58.204820832|10=196|8=FIX.4.4|9=74|35=0|49=MFIXTradeID|56=MU0319300002|34=688|52=20211215-10:39:06.204424494|10=195|8=FIX.4.4|9=74|35=0|49=MFIXTradeID|56=MU0319300002|34=689|52=20211215-10:39:14.260275198|10=202|8=FIX.4.4|9=74|35=0|49=MFIXTradeID|56=MU0319300002|34=690|52=20211215-10:39:22.261120828|10=183|8=FIX.4.4|9=74|35=0|49=MFIXTradeID|56=MU0319300002|34=691|52=20211215-10:39:30.261557874|10=198|8=FIX.4.4|9=74|35=0|49=MFIXTradeID|56=MU0319300002|34=692|52=20211215-10:39:38.261028294|10=196|8=FIX.4.4|9=74|35=0|49=MFIXTradeID|56=MU0319300002|34=693|52=20211215-10:39:46.260762570|10=197|8=FIX.4.4|9=74|35=0|49=MFIXTradeID|56=MU0319300002|34=694|52=20211215-10:39:54.261661722|10=195|8=FIX.4.4|9=74|35=0|49=MFIXTradeID|56=MU0319300002|34=695|52=20211215-10:40:02.262302108|10=172|8=FIX.4.4|9=74|35=0|49=MFIXTradeID|56=MU0319300002|34=696|52=20211215-10:40:11.040051858|10=180|8=FIX.4.4|9=74|35=0|49=MFIXTradeID|56=MU0319300002|34=697|52=20211215-10:40:19.039941766|10=203|8=FIX.4.4|9=74|35=0|49=MFIXTradeID|56=MU0319300002|34=698|52=20211215-10:40:27.040343112|10=176|8=FIX.4.4|9=74|35=0|49=MFIXTradeID|56=MU0319300002|34=699|52=20211215-10:40:35.040994348|10=199|8=FIX.4.4|9=74|35=0|49=MFIXTradeID|56=MU0319300002|34=700|52=20211215-10:40:43.041607172|10=168|8=FIX.4.4|9=74|35=0|49=MFIXTradeID|56=MU0319300002|34=701|52=20211215-10:40:51.042671862|10=176|8=FIX.4.4|9=74|35=0|49=MFIXTradeID|56=MU0319300002|34=702|52=20211215-10:40:59.043129164|10=179|8=FIX.4.4|9=74|35=0|49=MFIXTradeID|56=MU0319300002|34=703|52=20211215-10:41:07.042944652|10=180|8=FIX.4.4|9=74|35=0|49=MFIXTradeID|56=MU0319300002|34=704|52=20211215-10:41:15.043990428|10=183|8=FIX.4.4|9=74|35=0|49=MFIXTradeID|56=MU0319300002|34=705|52=20211215-10:41:23.044020789|10=178|8=FIX.4.4|9=74|35=0|49=MFIXTradeID|56=MU0319300002|34=706|52=20211215-10:41:31.044743815|10=180|8=FIX.4.4|9=74|35=0|49=MFIXTradeID|56=MU0319300002|34=707|52=20211215-10:41:39.884807774|10=206|8=FIX.4.4|9=74|35=0|49=MFIXTradeID|56=MU0319300002|34=708|52=20211215-10:41:47.885531331|10=190|8=FIX.4.4|9=74|35=0|49=MFIXTradeID|56=MU0319300002|34=709|52=20211215-10:41:55.885620170|10=190|8=FIX.4.4|9=74|35=0|49=MFIXTradeID|56=MU0319300002|34=710|52=20211215-10:42:03.886175088|10=190|8=FIX.4.4|9=74|35=0|49=MFIXTradeID|56=MU0319300002|34=711|52=20211215-10:42:11.886068872|10=192|8=FIX.4.4|9=74|35=0|49=MFIXTradeID|56=MU0319300002|34=712|52=20211215-10:42:19.887037027|10=190|8=FIX.4.4|9=74|35=0|49=MFIXTradeID|56=MU0319300002|34=713|52=20211215-10:42:27.886824422|10=192|8=FIX.4.4|9=74|35=0|49=MFIXTradeID|56=MU0319300002|34=714|52=20211215-10:42:35.887534030|10=186|8=FIX.4.4|9=74|35=0|49=MFIXTradeID|56=MU0319300002|34=715|52=20211215-10:42:43.889132869|10=202|8=FIX.4.4|9=74|35=0|49=MFIXTradeID|56=MU0319300002|34=716|52=20211215-10:42:51.889310783|10=195|8=FIX.4.4|9=74|35=0|49=MFIXTradeID|56=MU0319300002|34=717|52=20211215-10:42:59.890009203|10=188|8=FIX.4.4|9=74|35=0|49=MFIXTradeID|56=MU0319300002|34=718|52=20211215-10:43:08.560781840|10=192|8=FIX.4.4|9=74|35=0|49=MFIXTradeID|56=MU0319300002|34=719|52=20211215-10:43:16.933353808|10=195|8=FIX.4.4|9=74|35=0|49=MFIXTradeID|56=MU0319300002|34=720|52=20211215-10:43:24.934238690|10=188|8=FIX.4.4|9=74|35=0|49=MFIXTradeID|56=MU0319300002|34=721|52=20211215-10:43:32.933717599|10=197|8=FIX.4.4|9=74|35=0|49=MFIXTradeID|56=MU0319300002|34=722|52=20211215-10:43:40.935401853|10=182|8=FIX.4.4|9=74|35=0|49=MFIXTradeID|56=MU0319300002|34=723|52=20211215-10:43:48.935017000|10=178|8=FIX.4.4|9=74|35=0|49=MFIXTradeID|56=MU0319300002|34=724|52=20211215-10:43:56.936863279|10=206|8=FIX.4.4|9=74|35=0|49=MFIXTradeID|56=MU0319300002|34=725|52=20211215-10:44:04.937473765|10=199|8=FIX.4.4|9=74|35=0|49=MFIXTradeID|56=MU0319300002|34=726|52=20211215-10:44:12.938427129|10=193|8=FIX.4.4|9=74|35=0|49=MFIXTradeID|56=MU0319300002|34=727|52=20211215-10:44:20.938409911|10=192|8=FIX.4.4|9=74|35=0|49=MFIXTradeID|56=MU0319300002|34=728|52=20211215-10:44:28.937843065|10=202|8=FIX.4.4|9=74|35=0|49=MFIXTradeID|56=MU0319300002|34=729|52=20211215-10:44:37.433451950|10=192|8=FIX.4.4|9=74|35=0|49=MFIXTradeID|56=MU0319300002|34=730|52=20211215-10:44:45.433232307|10=176|8=FIX.4.4|9=74|35=0|49=MFIXTradeID|56=MU0319300002|34=731|52=20211215-10:44:53.434279916|10=194|8=FIX.4.4|9=74|35=0|49=MFIXTradeID|56=MU0319300002|34=732|52=20211215-10:45:01.433959250|10=184|8=FIX.4.4|9=74|35=0|49=MFIXTradeID|56=MU0319300002|34=733|52=20211215-10:45:09.434277360|10=189|8=FIX.4.4|9=74|35=0|49=MFIXTradeID|56=MU0319300002|34=734|52=20211215-10:45:17.433897606|10=199|8=FIX.4.4|9=74|35=0|49=MFIXTradeID|56=MU0319300002|34=735|52=20211215-10:45:25.434643377|10=194|8=FIX.4.4|9=74|35=0|49=MFIXTradeID|56=MU0319300002|34=736|52=20211215-10:45:33.433987614|10=198|8=FIX.4.4|9=74|35=0|49=MFIXTradeID|56=MU0319300002|34=737|52=20211215-10:45:41.434711172|10=183|8=FIX.4.4|9=74|35=0|49=MFIXTradeID|56=MU0319300002|34=738|52=20211215-10:45:49.436238424|10=198|8=FIX.4.4|9=74|35=0|49=MFIXTradeID|56=MU0319300002|34=739|52=20211215-10:45:57.437170424|10=194|8=FIX.4.4|9=74|35=0|49=MFIXTradeID|56=MU0319300002|34=740|52=20211215-10:46:06.270577058|10=190|8=FIX.4.4|9=74|35=0|49=MFIXTradeID|56=MU0319300002|34=741|52=20211215-10:46:14.270032490|10=176|8=FIX.4.4|9=74|35=0|49=MFIXTradeID|56=MU0319300002|34=742|52=20211215-10:46:22.270982043|10=184|8=FIX.4.4|9=74|35=0|49=MFIXTradeID|56=MU0319300002|34=743|52=20211215-10:46:30.271505349|10=185|8=FIX.4.4|9=74|35=0|49=MFIXTradeID|56=MU0319300002|34=744|52=20211215-10:46:38.271202051|10=178|8=FIX.4.4|9=74|35=0|49=MFIXTradeID|56=MU0319300002|34=745|52=20211215-10:46:46.270890004|10=188|8=FIX.4.4|9=74|35=0|49=MFIXTradeID|56=MU0319300002|34=746|52=20211215-10:46:54.272830586|10=199|8=FIX.4.4|9=74|35=0|49=MFIXTradeID|56=MU0319300002|34=747|52=20211215-10:47:02.273686168|10=200|8=FIX.4.4|9=74|35=0|49=MFIXTradeID|56=MU0319300002|34=748|52=20211215-10:47:10.273479858|10=206|8=FIX.4.4|9=74|35=0|49=MFIXTradeID|56=MU0319300002|34=749|52=20211215-10:47:18.274189889|10=218|8=FIX.4.4|9=74|35=0|49=MFIXTradeID|56=MU0319300002|34=750|52=20211215-10:47:26.275484714|10=195|8=FIX.4.4|9=74|35=0|49=MFIXTradeID|56=MU0319300002|34=751|52=20211215-10:47:35.146681415|10=190|8=FIX.4.4|9=74|35=0|49=MFIXTradeID|56=MU0319300002|34=752|52=20211215-10:47:43.146231088|10=187|8=FIX.4.4|9=74|35=0|49=MFIXTradeID|56=MU0319300002|34=753|52=20211215-10:47:51.145971182|10=192|8=FIX.4.4|9=74|35=0|49=MFIXTradeID|56=MU0319300002|34=754|52=20211215-10:47:59.147006025|10=188|8=FIX.4.4|9=74|35=0|49=MFIXTradeID|56=MU0319300002|34=755|52=20211215-10:48:07.147919453|10=201|8=FIX.4.4|9=74|35=0|49=MFIXTradeID|56=MU0319300002|34=756|52=20211215-10:48:15.148449095|10=202|8=FIX.4.4|9=74|35=0|49=MFIXTradeID|56=MU0319300002|34=757|52=20211215-10:48:23.148338627|10=200|8=FIX.4.4|9=74|35=0|49=MFIXTradeID|56=MU0319300002|34=758|52=20211215-10:48:31.147989607|10=209|8=FIX.4.4|9=74|35=0|49=MFIXTradeID|56=MU0319300002|34=759|52=20211215-10:48:39.149159606|10=208|8=FIX.4.4|9=74|35=0|49=MFIXTradeID|56=MU0319300002|34=760|52=20211215-10:48:47.148812164|10=193|8=FIX.4.4|9=74|35=0|49=MFIXTradeID|56=MU0319300002|34=761|52=20211215-10:48:56.969742379|10=215|8=FIX.4.4|9=74|35=0|49=MFIXTradeID|56=MU0319300002|34=762|52=20211215-10:49:03.971279306|10=197|8=FIX.4.4|9=74|35=0|49=MFIXTradeID|56=MU0319300002|34=763|52=20211215-10:49:11.971809604|10=197|8=FIX.4.4|9=74|35=0|49=MFIXTradeID|56=MU0319300002|34=764|52=20211215-10:49:19.973499204|10=209|8=FIX.4.4|9=74|35=0|49=MFIXTradeID|56=MU0319300002|34=765|52=20211215-10:49:27.974603893|10=211|8=FIX.4.4|9=74|35=0|49=MFIXTradeID|56=MU0319300002|34=766|52=20211215-10:49:35.974137519|10=208|8=FIX.4.4|9=74|35=0|49=MFIXTradeID|56=MU0319300002|34=767|52=20211215-10:49:43.974618680|10=211|8=FIX.4.4|9=74|35=0|49=MFIXTradeID|56=MU0319300002|34=768|52=20211215-10:49:51.974372816|10=209|8=FIX.4.4|9=74|35=0|49=MFIXTradeID|56=MU0319300002|34=769|52=20211215-10:49:59.975136068|10=216|8=FIX.4.4|9=74|35=0|49=MFIXTradeID|56=MU0319300002|34=770|52=20211215-10:50:07.974728644|10=199|8=FIX.4.4|9=74|35=0|49=MFIXTradeID|56=MU0319300002|34=771|52=20211215-10:50:15.975428668|10=203|8=FIX.4.4|9=74|35=0|49=MFIXTradeID|56=MU0319300002|34=772|52=20211215-10:50:24.629269815|10=197|8=FIX.4.4|9=74|35=0|49=MFIXTradeID|56=MU0319300002|34=773|52=20211215-10:50:32.629703594|10=194|8=FIX.4.4|9=74|35=0|49=MFIXTradeID|56=MU0319300002|34=774|52=20211215-10:50:40.630497984|10=199|8=FIX.4.4|9=74|35=0|49=MFIXTradeID|56=MU0319300002|34=775|52=20211215-10:50:48.631101157|10=183|8=FIX.4.4|9=74|35=0|49=MFIXTradeID|56=MU0319300002|34=776|52=20211215-10:50:56.631778559|10=209|8=FIX.4.4|9=74|35=0|49=MFIXTradeID|56=MU0319300002|34=777|52=20211215-10:51:04.632445629|10=194|8=FIX.4.4|9=74|35=0|49=MFIXTradeID|56=MU0319300002|34=778|52=20211215-10:51:12.632084175|10=189|8=FIX.4.4|9=74|35=0|49=MFIXTradeID|56=MU0319300002|34=779|52=20211215-10:51:20.631936447|10=196|8=FIX.4.4|9=74|35=0|49=MFIXTradeID|56=MU0319300002|34=780|52=20211215-10:51:28.632179654|10=196|8=FIX.4.4|9=74|35=0|49=MFIXTradeID|56=MU0319300002|34=781|52=20211215-10:51:36.633251228|10=185|8=FIX.4.4|9=74|35=0|49=MFIXTradeID|56=MU0319300002|34=782|52=20211215-10:51:44.633028256|10=188|8=FIX.4.4|9=74|35=0|49=MFIXTradeID|56=MU0319300002|34=783|52=20211215-10:51:53.427378022|10=189|8=FIX.4.4|9=74|35=0|49=MFIXTradeID|56=MU0319300002|34=784|52=20211215-10:52:01.426932590|10=189|8=FIX.4.4|9=74|35=0|49=MFIXTradeID|56=MU0319300002|34=785|52=20211215-10:52:09.428523086|10=196|8=FIX.4.4|9=74|35=0|49=MFIXTradeID|56=MU0319300002|34=786|52=20211215-10:52:17.429180610|10=189|8=FIX.4.4|9=74|35=0|49=MFIXTradeID|56=MU0319300002|34=787|52=20211215-10:52:25.429117288|10=200|8=FIX.4.4|9=74|35=0|49=MFIXTradeID|56=MU0319300002|34=788|52=20211215-10:52:33.429496654|10=207|8=FIX.4.4|9=74|35=0|49=MFIXTradeID|56=MU0319300002|34=789|52=20211215-10:52:41.430104603|10=179|8=FIX.4.4|9=74|35=0|49=MFIXTradeID|56=MU0319300002|34=790|52=20211215-10:52:49.429735384|10=203|8=FIX.4.4|9=74|35=0|49=MFIXTradeID|56=MU0319300002|34=791|52=20211215-10:52:57.430628649|10=200|8=FIX.4.4|9=74|35=0|49=MFIXTradeID|56=MU0319300002|34=792|52=20211215-10:53:05.430153848|10=189|8=FIX.4.4|9=74|35=0|49=MFIXTradeID|56=MU0319300002|34=793|52=20211215-10:53:13.431552310|10=177|8=FIX.4.4|9=74|35=0|49=MFIXTradeID|56=MU0319300002|34=794|52=20211215-10:53:22.306953781|10=196|8=FIX.4.4|9=74|35=0|49=MFIXTradeID|56=MU0319300002|34=795|52=20211215-10:53:30.307886038|10=197|8=FIX.4.4|9=74|35=0|49=MFIXTradeID|56=MU0319300002|34=796|52=20211215-10:53:38.309298365|10=208|8=FIX.4.4|9=74|35=0|49=MFIXTradeID|56=MU0319300002|34=797|52=20211215-10:53:46.308958140|10=201|8=FIX.4.4|9=74|35=0|49=MFIXTradeID|56=MU0319300002|34=798|52=20211215-10:53:54.309670115|10=195|8=FIX.4.4|9=74|35=0|49=MFIXTradeID|56=MU0319300002|34=799|52=20211215-10:54:02.310676463|10=194|8=FIX.4.4|9=74|35=0|49=MFIXTradeID|56=MU0319300002|34=800|52=20211215-10:54:10.311423203|10=159|8=FIX.4.4|9=74|35=0|49=MFIXTradeID|56=MU0319300002|34=801|52=20211215-10:54:18.311064983|10=184|8=FIX.4.4|9=74|35=0|49=MFIXTradeID|56=MU0319300002|34=802|52=20211215-10:54:26.311248877|10=190|8=FIX.4.4|9=74|35=0|49=MFIXTradeID|56=MU0319300002|34=803|52=20211215-10:54:34.311957020|10=177|8=FIX.4.4|9=74|35=0|49=MFIXTradeID|56=MU0319300002|34=804|52=20211215-10:54:42.311759460|10=185|8=FIX.4.4|9=74|35=0|49=MFIXTradeID|56=MU0319300002|34=805|52=20211215-10:54:51.041826983|10=191|8=FIX.4.4|9=74|35=0|49=MFIXTradeID|56=MU0319300002|34=806|52=20211215-10:54:59.042687729|10=204|8=FIX.4.4|9=74|35=0|49=MFIXTradeID|56=MU0319300002|34=807|52=20211215-10:55:07.044266895|10=198|8=FIX.4.4|9=74|35=0|49=MFIXTradeID|56=MU0319300002|34=808|52=20211215-10:55:15.045668842|10=197|8=FIX.4.4|9=74|35=0|49=MFIXTradeID|56=MU0319300002|34=809|52=20211215-10:55:23.388312986|10=202|8=FIX.4.4|9=74|35=0|49=MFIXTradeID|56=MU0319300002|34=810|52=20211215-10:55:31.388466218|10=191|8=FIX.4.4|9=74|35=0|49=MFIXTradeID|56=MU0319300002|34=811|52=20211215-10:55:39.387998897|10=222|8=FIX.4.4|9=74|35=0|49=MFIXTradeID|56=MU0319300002|34=812|52=20211215-10:55:47.387769232|10=201|8=FIX.4.4|9=74|35=0|49=MFIXTradeID|56=MU0319300002|34=813|52=20211215-10:55:55.388474322|10=195|8=FIX.4.4|9=74|35=0|49=MFIXTradeID|56=MU0319300002|34=814|52=20211215-10:56:03.390206807|10=184|8=FIX.4.4|9=74|35=0|49=MFIXTradeID|56=MU0319300002|34=815|52=20211215-10:56:11.389808652|10=198|8=FIX.4.4|9=74|35=0|49=MFIXTradeID|56=MU0319300002|34=816|52=20211215-10:56:19.819500519|10=196|8=FIX.4.4|9=74|35=0|49=MFIXTradeID|56=MU0319300002|34=817|52=20211215-10:56:27.820779575|10=208|8=FIX.4.4|9=74|35=0|49=MFIXTradeID|56=MU0319300002|34=818|52=20211215-10:56:35.820374002|10=184|8=FIX.4.4|9=74|35=0|49=MFIXTradeID|56=MU0319300002|34=819|52=20211215-10:56:43.821000913|10=182|8=FIX.4.4|9=74|35=0|49=MFIXTradeID|56=MU0319300002|34=820|52=20211215-10:56:51.821922978|10=197|8=FIX.4.4|9=74|35=0|49=MFIXTradeID|56=MU0319300002|34=821|52=20211215-10:56:59.821800449|10=194|8=FIX.4.4|9=74|35=0|49=MFIXTradeID|56=MU0319300002|34=822|52=20211215-10:57:07.822497476|10=202|8=FIX.4.4|9=74|35=0|49=MFIXTradeID|56=MU0319300002|34=823|52=20211215-10:57:15.824120301|10=174|8=FIX.4.4|9=74|35=0|49=MFIXTradeID|56=MU0319300002|34=824|52=20211215-10:57:23.824843284|10=196|8=FIX.4.4|9=74|35=0|49=MFIXTradeID|56=MU0319300002|34=825|52=20211215-10:57:31.825901126|10=187|8=FIX.4.4|9=74|35=0|49=MFIXTradeID|56=MU0319300002|34=826|52=20211215-10:57:39.826265838|10=210|8=FIX.4.4|9=74|35=0|49=MFIXTradeID|56=MU0319300002|34=827|52=20211215-10:57:47.828533027|10=200|8=FIX.4.4|9=74|35=0|49=MFIXTradeID|56=MU0319300002|34=828|52=20211215-10:57:55.829293488|10=215|8=FIX.4.4|9=74|35=0|49=MFIXTradeID|56=MU0319300002|34=829|52=20211215-10:58:03.830263980|10=196|8=FIX.4.4|9=74|35=0|49=MFIXTradeID|56=MU0319300002|34=830|52=20211215-10:58:11.829878548|10=207|8=FIX.4.4|9=74|35=0|49=MFIXTradeID|56=MU0319300002|34=831|52=20211215-10:58:19.830445725|10=195|8=FIX.4.4|9=74|35=0|49=MFIXTradeID|56=MU0319300002|34=832|52=20211215-10:58:27.832625255|10=195|8=FIX.4.4|9=74|35=0|49=MFIXTradeID|56=MU0319300002|34=833|52=20211215-10:58:35.832536711|10=193|8=FIX.4.4|9=74|35=0|49=MFIXTradeID|56=MU0319300002|34=834|52=20211215-10:58:43.833039998|10=209|8=FIX.4.4|9=74|35=0|49=MFIXTradeID|56=MU0319300002|34=835|52=20211215-10:58:51.833163038|10=192|8=FIX.4.4|9=74|35=0|49=MFIXTradeID|56=MU0319300002|34=836|52=20211215-10:58:59.834035826|10=205|8=FIX.4.4|9=74|35=0|49=MFIXTradeID|56=MU0319300002|34=837|52=20211215-10:59:07.834648806|10=208|8=FIX.4.4|9=74|35=0|49=MFIXTradeID|56=MU0319300002|34=838|52=20211215-10:59:16.521884203|10=195|8=FIX.4.4|9=74|35=0|49=MFIXTradeID|56=MU0319300002|34=839|52=20211215-10:59:24.522383781|10=201|8=FIX.4.4|9=74|35=0|49=MFIXTradeID|56=MU0319300002|34=840|52=20211215-10:59:32.523217083|10=184|8=FIX.4.4|9=74|35=0|49=MFIXTradeID|56=MU0319300002|34=841|52=20211215-10:59:40.523916565|10=195|8=FIX.4.4|9=74|35=0|49=MFIXTradeID|56=MU0319300002|34=842|52=20211215-10:59:48.524513597|10=203|8=FIX.4.4|9=74|35=0|49=MFIXTradeID|56=MU0319300002|34=843|52=20211215-10:59:56.525201319|10=190|8=FIX.4.4|9=74|35=0|49=MFIXTradeID|56=MU0319300002|34=844|52=20211215-11:00:04.524856162|10=182|8=FIX.4.4|9=74|35=0|49=MFIXTradeID|56=MU0319300002|34=845|52=20211215-11:00:12.525647857|10=192|8=FIX.4.4|9=74|35=0|49=MFIXTradeID|56=MU0319300002|34=846|52=20211215-11:00:20.525228512|10=175|8=FIX.4.4|9=74|35=0|49=MFIXTradeID|56=MU0319300002|34=847|52=20211215-11:00:28.525088690|10=195|8=FIX.4.4|9=74|35=0|49=MFIXTradeID|56=MU0319300002|34=848|52=20211215-11:00:36.526699350|10=197|8=FIX.4.4|9=74|35=0|49=MFIXTradeID|56=MU0319300002|34=849|52=20211215-11:00:45.281540318|10=185|8=FIX.4.4|9=74|35=0|49=MFIXTradeID|56=MU0319300002|34=850|52=20211215-11:00:53.282029842|10=181|8=FIX.4.4|9=74|35=0|49=MFIXTradeID|56=MU0319300002|34=851|52=20211215-11:01:01.283043036|10=168|8=FIX.4.4|9=74|35=0|49=MFIXTradeID|56=MU0319300002|34=852|52=20211215-11:01:09.282871620|10=184|8=FIX.4.4|9=74|35=0|49=MFIXTradeID|56=MU0319300002|34=853|52=20211215-11:01:17.283317605|10=183|8=FIX.4.4|9=74|35=0|49=MFIXTradeID|56=MU0319300002|34=854|52=20211215-11:01:25.284142040|10=173|8=FIX.4.4|9=74|35=0|49=MFIXTradeID|56=MU0319300002|34=855|52=20211215-11:01:33.284142553|10=182|8=FIX.4.4|9=74|35=0|49=MFIXTradeID|56=MU0319300002|34=856|52=20211215-11:01:41.284570915|10=189|8=FIX.4.4|9=74|35=0|49=MFIXTradeID|56=MU0319300002|34=857|52=20211215-11:01:49.284268458|10=204|8=FIX.4.4|9=74|35=0|49=MFIXTradeID|56=MU0319300002|34=858|52=20211215-11:01:57.284004575|10=192|8=FIX.4.4|9=74|35=0|49=MFIXTradeID|56=MU0319300002|34=859|52=20211215-11:02:06.927587646|10=207|8=FIX.4.4|9=74|35=0|49=MFIXTradeID|56=MU0319300002|34=860|52=20211215-11:02:13.928397182|10=192|8=FIX.4.4|9=74|35=0|49=MFIXTradeID|56=MU0319300002|34=861|52=20211215-11:02:21.929075244|10=185|8=FIX.4.4|9=74|35=0|49=MFIXTradeID|56=MU0319300002|34=862|52=20211215-11:02:29.930188956|10=201|8=FIX.4.4|9=74|35=0|49=MFIXTradeID|56=MU0319300002|34=863|52=20211215-11:02:37.929798613|10=206|8=FIX.4.4|9=74|35=0|49=MFIXTradeID|56=MU0319300002|34=864|52=20211215-11:02:45.930545652|10=191|8=FIX.4.4|9=74|35=0|49=MFIXTradeID|56=MU0319300002|34=865|52=20211215-11:02:53.930284027|10=187|8=FIX.4.4|9=74|35=0|49=MFIXTradeID|56=MU0319300002|34=866|52=20211215-11:03:01.930320802|10=174|8=FIX.4.4|9=74|35=0|49=MFIXTradeID|56=MU0319300002|34=867|52=20211215-11:03:09.930877349|10=206|8=FIX.4.4|9=74|35=0|49=MFIXTradeID|56=MU0319300002|34=868|52=20211215-11:03:17.932470397|10=200|8=FIX.4.4|9=74|35=0|49=MFIXTradeID|56=MU0319300002|34=869|52=20211215-11:03:25.932244147|10=192|8=FIX.4.4|9=74|35=0|49=MFIXTradeID|56=MU0319300002|34=870|52=20211215-11:03:34.816406622|10=183|8=FIX.4.4|9=74|35=0|49=MFIXTradeID|56=MU0319300002|34=871|52=20211215-11:03:42.815944524|10=190|8=FIX.4.4|9=74|35=0|49=MFIXTradeID|56=MU0319300002|34=872|52=20211215-11:03:50.815848901|10=192|8=FIX.4.4|9=74|35=0|49=MFIXTradeID|56=MU0319300002|34=873|52=20211215-11:03:58.816527621|10=195|8=FIX.4.4|9=74|35=0|49=MFIXTradeID|56=MU0319300002|34=874|52=20211215-11:04:06.818433505|10=189|8=FIX.4.4|9=74|35=0|49=MFIXTradeID|56=MU0319300002|34=875|52=20211215-11:04:14.817917635|10=199|8=FIX.4.4|9=74|35=0|49=MFIXTradeID|56=MU0319300002|34=876|52=20211215-11:04:22.818596689|10=212|8=FIX.4.4|9=74|35=0|49=MFIXTradeID|56=MU0319300002|34=877|52=20211215-11:04:30.818380034|10=187|8=FIX.4.4|9=74|35=0|49=MFIXTradeID|56=MU0319300002|34=878|52=20211215-11:04:38.818704008|10=197|8=FIX.4.4|9=74|35=0|49=MFIXTradeID|56=MU0319300002|34=879|52=20211215-11:04:46.819325455|10=203|8=FIX.4.4|9=74|35=0|49=MFIXTradeID|56=MU0319300002|34=880|52=20211215-11:04:54.820239590|10=190|8=FIX.4.4|9=74|35=0|49=MFIXTradeID|56=MU0319300002|34=881|52=20211215-11:05:03.659222804|10=186|8=FIX.4.4|9=74|35=0|49=MFIXTradeID|56=MU0319300002|34=882|52=20211215-11:05:11.660905265|10=187|8=FIX.4.4|9=74|35=0|49=MFIXTradeID|56=MU0319300002|34=883|52=20211215-11:05:19.661586798|10=213|8=FIX.4.4|9=74|35=0|49=MFIXTradeID|56=MU0319300002|34=884|52=20211215-11:05:27.661237138|10=194|8=FIX.4.4|9=74|35=0|49=MFIXTradeID|56=MU0319300002|34=885|52=20211215-11:05:35.661088779|10=209|8=FIX.4.4|9=74|35=0|49=MFIXTradeID|56=MU0319300002|34=886|52=20211215-11:05:43.661619545|10=200|8=FIX.4.4|9=74|35=0|49=MFIXTradeID|56=MU0319300002|34=887|52=20211215-11:05:51.662188340|10=195|8=FIX.4.4|9=74|35=0|49=MFIXTradeID|56=MU0319300002|34=888|52=20211215-11:05:59.661951535|10=207|8=FIX.4.4|9=74|35=0|49=MFIXTradeID|56=MU0319300002|34=889|52=20211215-11:06:07.662700419|10=196|8=FIX.4.4|9=74|35=0|49=MFIXTradeID|56=MU0319300002|34=890|52=20211215-11:06:15.663383137|10=192|8=FIX.4.4|9=74|35=0|49=MFIXTradeID|56=MU0319300002|34=891|52=20211215-11:06:23.663035765|10=193|8=FIX.4.4|9=74|35=0|49=MFIXTradeID|56=MU0319300002|34=892|52=20211215-11:06:32.412005115|10=172|8=FIX.4.4|9=74|35=0|49=MFIXTradeID|56=MU0319300002|34=893|52=20211215-11:06:40.412456627|10=190|8=FIX.4.4|9=74|35=0|49=MFIXTradeID|56=MU0319300002|34=894|52=20211215-11:06:48.413023970|10=191|8=FIX.4.4|9=74|35=0|49=MFIXTradeID|56=MU0319300002|34=895|52=20211215-11:06:56.412813568|10=200|8=FIX.4.4|9=74|35=0|49=MFIXTradeID|56=MU0319300002|34=896|52=20211215-11:07:04.412768267|10=200|8=FIX.4.4|9=74|35=0|49=MFIXTradeID|56=MU0319300002|34=897|52=20211215-11:07:12.413350725|10=187|8=FIX.4.4|9=74|35=0|49=MFIXTradeID|56=MU0319300002|34=898|52=20211215-11:07:20.414936177|10=199|8=FIX.4.4|9=74|35=0|49=MFIXTradeID|56=MU0319300002|34=899|52=20211215-11:07:28.415683294|10=208|8=FIX.4.4|9=74|35=0|49=MFIXTradeID|56=MU0319300002|34=900|52=20211215-11:07:36.416637827|10=192|8=FIX.4.4|9=74|35=0|49=MFIXTradeID|56=MU0319300002|34=901|52=20211215-11:07:44.416509027|10=182|8=FIX.4.4|9=74|35=0|49=MFIXTradeID|56=MU0319300002|34=902|52=20211215-11:07:52.417293588|10=195|8=FIX.4.4|9=74|35=0|49=MFIXTradeID|56=MU0319300002|34=903|52=20211215-11:08:01.210678770|10=182|8=FIX.4.4|9=74|35=0|49=MFIXTradeID|56=MU0319300002|34=904|52=20211215-11:08:09.210786957|10=198|8=FIX.4.4|9=74|35=0|49=MFIXTradeID|56=MU0319300002|34=905|52=20211215-11:08:17.211517381|10=182|8=FIX.4.4|9=74|35=0|49=MFIXTradeID|56=MU0319300002|34=906|52=20211215-11:08:25.212233515|10=177|8=FIX.4.4|9=74|35=0|49=MFIXTradeID|56=MU0319300002|34=907|52=20211215-11:08:33.212262864|10=186|8=FIX.4.4|9=74|35=0|49=MFIXTradeID|56=MU0319300002|34=908|52=20211215-11:08:41.213915820|10=184|8=FIX.4.4|9=74|35=0|49=MFIXTradeID|56=MU0319300002|34=909|52=20211215-11:08:49.214841728|10=199|8=FIX.4.4|9=74|35=0|49=MFIXTradeID|56=MU0319300002|34=910|52=20211215-11:08:57.215717875|10=196|8=FIX.4.4|9=74|35=0|49=MFIXTradeID|56=MU0319300002|34=911|52=20211215-11:09:05.216760070|10=177|8=FIX.4.4|9=74|35=0|49=MFIXTradeID|56=MU0319300002|34=912|52=20211215-11:09:13.217421726|10=180|8=FIX.4.4|9=74|35=0|49=MFIXTradeID|56=MU0319300002|34=913|52=20211215-11:09:21.217932930|10=184|8=FIX.4.4|9=74|35=0|49=MFIXTradeID|56=MU0319300002|34=914|52=20211215-11:09:29.974971758|10=214|8=FIX.4.4|9=74|35=0|49=MFIXTradeID|56=MU0319300002|34=915|52=20211215-11:09:37.975740697|10=211|8=FIX.4.4|9=74|35=0|49=MFIXTradeID|56=MU0319300002|34=916|52=20211215-11:09:45.976606029|10=202|8=FIX.4.4|9=74|35=0|49=MFIXTradeID|56=MU0319300002|34=917|52=20211215-11:09:53.976216913|10=201|8=FIX.4.4|9=74|35=0|49=MFIXTradeID|56=MU0319300002|34=918|52=20211215-11:10:01.976085577|10=197|8=FIX.4.4|9=74|35=0|49=MFIXTradeID|56=MU0319300002|34=919|52=20211215-11:10:09.976201993|10=198|8=FIX.4.4|9=74|35=0|49=MFIXTradeID|56=MU0319300002|34=920|52=20211215-11:10:17.975960022|10=183|8=FIX.4.4|9=74|35=0|49=MFIXTradeID|56=MU0319300002|34=921|52=20211215-11:10:25.976733433|10=188|8=FIX.4.4|9=74|35=0|49=MFIXTradeID|56=MU0319300002|34=922|52=20211215-11:10:33.976731319|10=189|8=FIX.4.4|9=74|35=0|49=MFIXTradeID|56=MU0319300002|34=923|52=20211215-11:10:41.977367077|10=196|8=FIX.4.4|9=74|35=0|49=MFIXTradeID|56=MU0319300002|34=924|52=20211215-11:10:49.978031540|10=189|8=FIX.4.4|9=74|35=0|49=MFIXTradeID|56=MU0319300002|34=925|52=20211215-11:10:58.722769873|10=204|8=FIX.4.4|9=74|35=0|49=MFIXTradeID|56=MU0319300002|34=926|52=20211215-11:11:06.723734440|10=182|8=FIX.4.4|9=74|35=0|49=MFIXTradeID|56=MU0319300002|34=927|52=20211215-11:11:14.725231696|10=189|8=FIX.4.4|9=74|35=0|49=MFIXTradeID|56=MU0319300002|34=928|52=20211215-11:11:22.725770091|10=186|8=FIX.4.4|9=74|35=0|49=MFIXTradeID|56=MU0319300002|34=929|52=20211215-11:11:30.726448973|10=198|8=FIX.4.4|9=74|35=0|49=MFIXTradeID|56=MU0319300002|34=930|52=20211215-11:11:39.259676381|10=196|8=FIX.4.4|9=74|35=0|49=MFIXTradeID|56=MU0319300002|34=931|52=20211215-11:11:47.259445900|10=187|8=FIX.4.4|9=74|35=0|49=MFIXTradeID|56=MU0319300002|34=932|52=20211215-11:11:55.259325145|10=185|8=FIX.4.4|9=74|35=0|49=MFIXTradeID|56=MU0319300002|34=933|52=20211215-11:12:03.258988748|10=203|8=FIX.4.4|9=74|35=0|49=MFIXTradeID|56=MU0319300002|34=934|52=20211215-11:12:11.259000412|10=167|8=FIX.4.4|9=74|35=0|49=MFIXTradeID|56=MU0319300002|34=935|52=20211215-11:12:19.260596507|10=193|8=FIX.4.4|9=74|35=0|49=MFIXTradeID|56=MU0319300002|34=936|52=20211215-11:12:27.559893295|10=208|8=FIX.4.4|9=74|35=0|49=MFIXTradeID|56=MU0319300002|34=937|52=20211215-11:12:35.560078844|10=195|8=FIX.4.4|9=74|35=0|49=MFIXTradeID|56=MU0319300002|34=938|52=20211215-11:12:43.561826610|10=188|8=FIX.4.4|9=74|35=0|49=MFIXTradeID|56=MU0319300002|34=939|52=20211215-11:12:51.562652873|10=197|8=FIX.4.4|9=74|35=0|49=MFIXTradeID|56=MU0319300002|34=940|52=20211215-11:12:59.562519103|10=185|8=FIX.4.4|9=74|35=0|49=MFIXTradeID|56=MU0319300002|34=941|52=20211215-11:13:07.562680490|10=188|8=FIX.4.4|9=74|35=0|49=MFIXTradeID|56=MU0319300002|34=942|52=20211215-11:13:15.564404765|10=189|8=FIX.4.4|9=74|35=0|49=MFIXTradeID|56=MU0319300002|34=943|52=20211215-11:13:23.564040668|10=187|8=FIX.4.4|9=74|35=0|49=MFIXTradeID|56=MU0319300002|34=944|52=20211215-11:13:31.564067397|10=195|8=FIX.4.4|9=74|35=0|49=MFIXTradeID|56=MU0319300002|34=945|52=20211215-11:13:39.566490315|10=196|8=FIX.4.4|9=74|35=0|49=MFIXTradeID|56=MU0319300002|34=946|52=20211215-11:13:47.567258252|10=199|8=FIX.4.4|9=74|35=0|49=MFIXTradeID|56=MU0319300002|34=947|52=20211215-11:13:55.568370919|10=205|8=FIX.4.4|9=74|35=0|49=MFIXTradeID|56=MU0319300002|34=948|52=20211215-11:14:03.568151656|10=195|8=FIX.4.4|9=74|35=0|49=MFIXTradeID|56=MU0319300002|34=949|52=20211215-11:14:11.569123602|10=186|8=FIX.4.4|9=74|35=0|49=MFIXTradeID|56=MU0319300002|34=950|52=20211215-11:14:19.568850662|10=198|8=FIX.4.4|9=74|35=0|49=MFIXTradeID|56=MU0319300002|34=951|52=20211215-11:14:27.570553064|10=187|8=FIX.4.4|9=74|35=0|49=MFIXTradeID|56=MU0319300002|34=952|52=20211215-11:14:35.571445302|10=183|8=FIX.4.4|9=74|35=0|49=MFIXTradeID|56=MU0319300002|34=953|52=20211215-11:14:43.573067672|10=195|8=FIX.4.4|9=74|35=0|49=MFIXTradeID|56=MU0319300002|34=954|52=20211215-11:14:51.573025894|10=195|8=FIX.4.4|9=74|35=0|49=MFIXTradeID|56=MU0319300002|34=955|52=20211215-11:14:59.573767318|10=208|8=FIX.4.4|9=74|35=0|49=MFIXTradeID|56=MU0319300002|34=956|52=20211215-11:15:07.574807691|10=203|8=FIX.4.4|9=74|35=0|49=MFIXTradeID|56=MU0319300002|34=957|52=20211215-11:15:17.302142216|10=179|8=FIX.4.4|9=74|35=0|49=MFIXTradeID|56=MU0319300002|34=958|52=20211215-11:15:24.918036109|10=194|8=FIX.4.4|9=74|35=0|49=MFIXTradeID|56=MU0319300002|34=959|52=20211215-11:15:32.918772286|10=207|8=FIX.4.4|9=74|35=0|49=MFIXTradeID|56=MU0319300002|34=960|52=20211215-11:15:40.919057324|10=188|8=FIX.4.4|9=74|35=0|49=MFIXTradeID|56=MU0319300002|34=961|52=20211215-11:15:48.918693312|10=199|8=FIX.4.4|9=74|35=0|49=MFIXTradeID|56=MU0319300002|34=962|52=20211215-11:15:56.919540526|10=198|8=FIX.4.4|9=74|35=0|49=MFIXTradeID|56=MU0319300002|34=963|52=20211215-11:16:04.920332890|10=188|8=FIX.4.4|9=74|35=0|49=MFIXTradeID|56=MU0319300002|34=964|52=20211215-11:16:12.920147311|10=180|8=FIX.4.4|9=74|35=0|49=MFIXTradeID|56=MU0319300002|34=965|52=20211215-11:16:20.920920138|10=186|8=FIX.4.4|9=74|35=0|49=MFIXTradeID|56=MU0319300002|34=966|52=20211215-11:16:28.921486704|10=202|8=FIX.4.4|9=74|35=0|49=MFIXTradeID|56=MU0319300002|34=967|52=20211215-11:16:36.922403825|10=196|8=FIX.4.4|9=74|35=0|49=MFIXTradeID|56=MU0319300002|34=968|52=20211215-11:16:45.268175729|10=209|8=FIX.4.4|9=74|35=0|49=MFIXTradeID|56=MU0319300002|34=969|52=20211215-11:16:53.267742379|10=209|8=FIX.4.4|9=74|35=0|49=MFIXTradeID|56=MU0319300002|34=970|52=20211215-11:17:01.267835290|10=190|8=FIX.4.4|9=74|35=0|49=MFIXTradeID|56=MU0319300002|34=971|52=20211215-11:17:09.269625595|10=206|8=FIX.4.4|9=74|35=0|49=MFIXTradeID|56=MU0319300002|34=972|52=20211215-11:17:17.270569226|10=196|8=FIX.4.4|9=74|35=0|49=MFIXTradeID|56=MU0319300002|34=973|52=20211215-11:17:25.270988842|10=205|8=FIX.4.4|9=74|35=0|49=MFIXTradeID|56=MU0319300002|34=974|52=20211215-11:17:33.270799062|10=199|8=FIX.4.4|9=74|35=0|49=MFIXTradeID|56=MU0319300002|34=975|52=20211215-11:17:41.271324504|10=185|8=FIX.4.4|9=74|35=0|49=MFIXTradeID|56=MU0319300002|34=976|52=20211215-11:17:49.271974472|10=209|8=FIX.4.4|9=74|35=0|49=MFIXTradeID|56=MU0319300002|34=977|52=20211215-11:17:57.273604081|10=197|8=FIX.4.4|9=74|35=0|49=MFIXTradeID|56=MU0319300002|34=978|52=20211215-11:18:05.274357590|10=203|8=FIX.4.4|9=74|35=0|49=MFIXTradeID|56=MU0319300002|34=979|52=20211215-11:18:13.901407797|10=205|8=FIX.4.4|9=74|35=0|49=MFIXTradeID|56=MU0319300002|34=980|52=20211215-11:18:21.901085439|10=191|8=FIX.4.4|9=74|35=0|49=MFIXTradeID|56=MU0319300002|34=981|52=20211215-11:18:29.900790570|10=198|8=FIX.4.4|9=74|35=0|49=MFIXTradeID|56=MU0319300002|34=982|52=20211215-11:18:37.901062279|10=197|8=FIX.4.4|9=74|35=0|49=MFIXTradeID|56=MU0319300002|34=983|52=20211215-11:18:45.902632536|10=197|8=FIX.4.4|9=74|35=0|49=MFIXTradeID|56=MU0319300002|34=984|52=20211215-11:18:53.902158113|10=191|8=FIX.4.4|9=74|35=0|49=MFIXTradeID|56=MU0319300002|34=985|52=20211215-11:19:01.902039274|10=192|8=FIX.4.4|9=74|35=0|49=MFIXTradeID|56=MU0319300002|34=986|52=20211215-11:19:09.902909501|10=200|8=FIX.4.4|9=74|35=0|49=MFIXTradeID|56=MU0319300002|34=987|52=20211215-11:19:17.903437946|10=210|8=FIX.4.4|9=74|35=0|49=MFIXTradeID|56=MU0319300002|34=988|52=20211215-11:19:25.902957987|10=221|8=FIX.4.4|9=74|35=0|49=MFIXTradeID|56=MU0319300002|34=989|52=20211215-11:19:33.903776872|10=214|8=FIX.4.4|9=74|35=0|49=MFIXTradeID|56=MU0319300002|34=990|52=20211215-11:19:41.904480682|10=197|8=FIX.4.4|9=74|35=0|49=MFIXTradeID|56=MU0319300002|34=991|52=20211215-11:19:49.904991397|10=216|8=FIX.4.4|9=74|35=0|49=MFIXTradeID|56=MU0319300002|34=992|52=20211215-11:19:57.905465399|10=215|8=FIX.4.4|9=74|35=0|49=MFIXTradeID|56=MU0319300002|34=993|52=20211215-11:20:05.905282011|10=179|8=FIX.4.4|9=74|35=0|49=MFIXTradeID|56=MU0319300002|34=994|52=20211215-11:20:13.906194577|10=199|8=FIX.4.4|9=74|35=0|49=MFIXTradeID|56=MU0319300002|34=995|52=20211215-11:20:21.905802420|10=181|8=FIX.4.4|9=74|35=0|49=MFIXTradeID|56=MU0319300002|34=996|52=20211215-11:20:29.907378960|10=209|8=FIX.4.4|9=74|35=0|49=MFIXTradeID|56=MU0319300002|34=997|52=20211215-11:20:37.907693917|10=211|8=FIX.4.4|9=74|35=0|49=MFIXTradeID|56=MU0319300002|34=998|52=20211215-11:20:45.908027699|10=210|8=FIX.4.4|9=74|35=0|49=MFIXTradeID|56=MU0319300002|34=999|52=20211215-11:20:53.908611451|10=195|8=FIX.4.4|9=75|35=0|49=MFIXTradeID|56=MU0319300002|34=1000|52=20211215-11:21:01.908248709|10=224|8=FIX.4.4|9=75|35=0|49=MFIXTradeID|56=MU0319300002|34=1001|52=20211215-11:21:10.574343175|10=217|8=FIX.4.4|9=75|35=0|49=MFIXTradeID|56=MU0319300002|34=1002|52=20211215-11:21:18.574989116|10=237|8=FIX.4.4|9=75|35=0|49=MFIXTradeID|56=MU0319300002|34=1003|52=20211215-11:21:26.575520646|10=227|8=FIX.4.4|9=75|35=0|49=MFIXTradeID|56=MU0319300002|34=1004|52=20211215-11:21:34.576059642|10=231|8=FIX.4.4|9=75|35=0|49=MFIXTradeID|56=MU0319300002|34=1005|52=20211215-11:21:42.578441688|10=238|8=FIX.4.4|9=75|35=0|49=MFIXTradeID|56=MU0319300002|34=1006|52=20211215-11:21:50.578074339|10=233|8=FIX.4.4|9=75|35=0|49=MFIXTradeID|56=MU0319300002|34=1007|52=20211215-11:21:58.577696021|10=239|8=FIX.4.4|9=75|35=0|49=MFIXTradeID|56=MU0319300002|34=1008|52=20211215-11:22:06.578506295|10=238|8=FIX.4.4|9=75|35=0|49=MFIXTradeID|56=MU0319300002|34=1009|52=20211215-11:22:14.579320790|10=233|8=FIX.4.4|9=75|35=0|49=MFIXTradeID|56=MU0319300002|34=1010|52=20211215-11:22:22.579968353|10=237|8=FIX.4.4|9=75|35=0|49=MFIXTradeID|56=MU0319300002|34=1011|52=20211215-11:22:30.581492540|10=220|8=FIX.4.4|9=75|35=0|49=MFIXTradeID|56=MU0319300002|34=1012|52=20211215-11:22:38.693646429|10=240|8=FIX.4.4|9=75|35=0|49=MFIXTradeID|56=MU0319300002|34=1013|52=20211215-11:22:46.693256556|10=238|8=FIX.4.4|9=75|35=0|49=MFIXTradeID|56=MU0319300002|34=1014|52=20211215-11:22:54.692911472|10=232|8=FIX.4.4|9=75|35=0|49=MFIXTradeID|56=MU0319300002|34=1015|52=20211215-11:23:02.693620219|10=224|8=FIX.4.4|9=75|35=0|49=MFIXTradeID|56=MU0319300002|34=1016|52=20211215-11:23:10.694352897|10=239|8=FIX.4.4|9=75|35=0|49=MFIXTradeID|56=MU0319300002|34=1017|52=20211215-11:23:18.694720335|10=234|8=FIX.4.4|9=75|35=0|49=MFIXTradeID|56=MU0319300002|34=1018|52=20211215-11:23:26.695136275|10=239|8=FIX.4.4|9=75|35=0|49=MFIXTradeID|56=MU0319300002|34=1019|52=20211215-11:23:34.695858103|10=240|8=FIX.4.4|9=75|35=0|49=MFIXTradeID|56=MU0319300002|34=1020|52=20211215-11:23:42.696732084|10=231|8=FIX.4.4|9=75|35=0|49=MFIXTradeID|56=MU0319300002|34=1021|52=20211215-11:23:50.697209223|10=226|8=FIX.4.4|9=75|35=0|49=MFIXTradeID|56=MU0319300002|34=1022|52=20211215-11:23:58.696900635|10=239|8=FIX.4.4|9=75|35=0|49=MFIXTradeID|56=MU0319300002|34=1023|52=20211215-11:24:07.358247251|10=228|8=FIX.4.4|9=75|35=0|49=MFIXTradeID|56=MU0319300002|34=1024|52=20211215-11:24:15.357971236|10=234|8=FIX.4.4|9=75|35=0|49=MFIXTradeID|56=MU0319300002|34=1025|52=20211215-11:24:23.358648219|10=237|8=FIX.4.4|9=75|35=0|49=MFIXTradeID|56=MU0319300002|34=1026|52=20211215-11:24:31.359391259|10=237|8=FIX.4.4|9=75|35=0|49=MFIXTradeID|56=MU0319300002|34=1027|52=20211215-11:24:39.359253633|10=239|8=FIX.4.4|9=75|35=0|49=MFIXTradeID|56=MU0319300002|34=1028|52=20211215-11:24:47.358940268|10=245|8=FIX.4.4|9=75|35=0|49=MFIXTradeID|56=MU0319300002|34=1029|52=20211215-11:24:55.359783030|10=238|8=FIX.4.4|9=75|35=0|49=MFIXTradeID|56=MU0319300002|34=1030|52=20211215-11:25:03.360429136|10=220|8=FIX.4.4|9=75|35=0|49=MFIXTradeID|56=MU0319300002|34=1031|52=20211215-11:25:11.360440855|10=221|8=FIX.4.4|9=75|35=0|49=MFIXTradeID|56=MU0319300002|34=1032|52=20211215-11:25:19.359983602|10=240|8=FIX.4.4|9=75|35=0|49=MFIXTradeID|56=MU0319300002|34=1033|52=20211215-11:25:27.360792739|10=241|8=FIX.4.4|9=75|35=0|49=MFIXTradeID|56=MU0319300002|34=1034|52=20211215-11:25:36.139503060|10=223|8=FIX.4.4|9=75|35=0|49=MFIXTradeID|56=MU0319300002|34=1035|52=20211215-11:25:44.139578842|10=243|8=FIX.4.4|9=75|35=0|49=MFIXTradeID|56=MU0319300002|34=1036|52=20211215-11:25:52.140198523|10=229|8=FIX.4.4|9=75|35=0|49=MFIXTradeID|56=MU0319300002|34=1037|52=20211215-11:26:00.140073039|10=218|8=FIX.4.4|9=75|35=0|49=MFIXTradeID|56=MU0319300002|34=1038|52=20211215-11:26:08.139834405|10=237|8=FIX.4.4|9=75|35=0|49=MFIXTradeID|56=MU0319300002|34=1039|52=20211215-11:26:16.141615157|10=231|8=FIX.4.4|9=75|35=0|49=MFIXTradeID|56=MU0319300002|34=1040|52=20211215-11:26:24.141115839|10=224|8=FIX.4.4|9=75|35=0|49=MFIXTradeID|56=MU0319300002|34=1041|52=20211215-11:26:32.140820968|10=229|8=FIX.4.4|9=75|35=0|49=MFIXTradeID|56=MU0319300002|34=1042|52=20211215-11:26:40.142105020|1