8=FIX.4.4|9=89|35=A|49=MFIXTradeID|56=MU0319300002|34=1|52=20211215-09:06:48.669768808|98=0|108=8|141=Y|10=161|8=FIX.4.4|9=72|35=0|49=MFIXTradeID|56=MU0319300002|34=2|52=20211215-09:06:54.796210588|10=095|8=FIX.4.4|9=72|35=0|49=MFIXTradeID|56=MU0319300002|34=3|52=20211215-09:07:02.796091403|10=083|8=FIX.4.4|9=72|35=0|49=MFIXTradeID|56=MU0319300002|34=4|52=20211215-09:07:10.796913020|10=081|8=FIX.4.4|9=72|35=0|49=MFIXTradeID|56=MU0319300002|34=5|52=20211215-09:07:18.797679500|10=103|8=FIX.4.4|9=72|35=0|49=MFIXTradeID|56=MU0319300002|34=6|52=20211215-09:07:26.797242589|10=106|8=FIX.4.4|9=72|35=0|49=MFIXTradeID|56=MU0319300002|34=7|52=20211215-09:07:34.797303198|10=100|8=FIX.4.4|9=72|35=0|49=MFIXTradeID|56=MU0319300002|34=8|52=20211215-09:07:42.797867890|10=114|8=FIX.4.4|9=72|35=0|49=MFIXTradeID|56=MU0319300002|34=9|52=20211215-09:07:50.799349705|10=106|